{
	"Udemy_Contracts/Types.sol": {
		"TypesContract": {
			"abi": [
				{
					"inputs": [],
					"name": "getValue",
					"outputs": [
						{
							"internalType": "uint256",
							"name": "",
							"type": "uint256"
						}
					],
					"stateMutability": "pure",
					"type": "function"
				},
				{
					"inputs": [],
					"name": "myAddress",
					"outputs": [
						{
							"internalType": "address",
							"name": "",
							"type": "address"
						}
					],
					"stateMutability": "view",
					"type": "function"
				},
				{
					"inputs": [],
					"name": "myInt",
					"outputs": [
						{
							"internalType": "int256",
							"name": "",
							"type": "int256"
						}
					],
					"stateMutability": "view",
					"type": "function"
				},
				{
					"inputs": [],
					"name": "myString",
					"outputs": [
						{
							"internalType": "string",
							"name": "",
							"type": "string"
						}
					],
					"stateMutability": "view",
					"type": "function"
				},
				{
					"inputs": [],
					"name": "myUint",
					"outputs": [
						{
							"internalType": "uint256",
							"name": "",
							"type": "uint256"
						}
					],
					"stateMutability": "view",
					"type": "function"
				},
				{
					"inputs": [],
					"name": "myUint256",
					"outputs": [
						{
							"internalType": "uint256",
							"name": "",
							"type": "uint256"
						}
					],
					"stateMutability": "view",
					"type": "function"
				},
				{
					"inputs": [],
					"name": "myUint8",
					"outputs": [
						{
							"internalType": "uint8",
							"name": "",
							"type": "uint8"
						}
					],
					"stateMutability": "view",
					"type": "function"
				}
			],
			"devdoc": {
				"kind": "dev",
				"methods": {},
				"version": 1
			},
			"evm": {
				"assembly": "    /* \"Udemy_Contracts/Types.sol\":56:562  contract TypesContract{... */\n  mstore(0x40, 0x80)\n    /* \"Udemy_Contracts/Types.sol\":131:132  2 */\n  0x02\n    /* \"Udemy_Contracts/Types.sol\":109:132  uint  public myUint = 2 */\n  0x00\n  sstore\n    /* \"Udemy_Contracts/Types.sol\":179:180  1 */\n  0x01\n    /* \"Udemy_Contracts/Types.sol\":152:180  uint256 public myUint256 = 1 */\n  dup1\n  sstore\n    /* \"Udemy_Contracts/Types.sol\":209:210  1 */\n  0x01\n    /* \"Udemy_Contracts/Types.sol\":186:210  uint8 public myUint8 = 1 */\n  0x02\n  exp(0x0100, 0x00)\n  dup2\n  sload\n  dup2\n  0xff\n  mul\n  not\n  and\n  swap1\n  dup4\n  0xff\n  and\n  mul\n  or\n  swap1\n  sstore\n  pop\n    /* \"Udemy_Contracts/Types.sol\":235:237  -1 */\n  0xffffffffffffffffffffffffffffffffffffffffffffffffffffffffffffffff\n    /* \"Udemy_Contracts/Types.sol\":216:237  int public myInt = -1 */\n  0x03\n  sstore\n    /* \"Udemy_Contracts/Types.sol\":244:283  string public myString = \"Hello Web3.0\" */\n  mload(0x40)\n  dup1\n  0x40\n  add\n  0x40\n  mstore\n  dup1\n  0x0c\n  dup2\n  mstore\n  0x20\n  add\n  0x48656c6c6f20576562332e300000000000000000000000000000000000000000\n  dup2\n  mstore\n  pop\n  0x04\n  swap1\n  dup1\n  mload\n  swap1\n  0x20\n  add\n  swap1\n  tag_1\n  swap3\n  swap2\n  swap1\n  tag_2\n  jump\t// in\ntag_1:\n  pop\n    /* \"Udemy_Contracts/Types.sol\":317:359  0x48FFBBc808740181080B107F6D01cF878E16585a */\n  0x48ffbbc808740181080b107f6d01cf878e16585a\n    /* \"Udemy_Contracts/Types.sol\":290:359  address public myAddress = 0x48FFBBc808740181080B107F6D01cF878E16585a */\n  0x05\n  exp(0x0100, 0x00)\n  dup2\n  sload\n  dup2\n  0xffffffffffffffffffffffffffffffffffffffff\n  mul\n  not\n  and\n  swap1\n  dup4\n  0xffffffffffffffffffffffffffffffffffffffff\n  and\n  mul\n  or\n  swap1\n  sstore\n  pop\n    /* \"Udemy_Contracts/Types.sol\":56:562  contract TypesContract{... */\n  callvalue\n  dup1\n  iszero\n  tag_3\n  jumpi\n  0x00\n  dup1\n  revert\ntag_3:\n  pop\n  jump(tag_4)\ntag_2:\n  dup3\n  dup1\n  sload\n  tag_5\n  swap1\n  tag_6\n  jump\t// in\ntag_5:\n  swap1\n  0x00\n  mstore\n  keccak256(0x00, 0x20)\n  swap1\n  0x1f\n  add\n  0x20\n  swap1\n  div\n  dup2\n  add\n  swap3\n  dup3\n  tag_8\n  jumpi\n  0x00\n  dup6\n  sstore\n  jump(tag_7)\ntag_8:\n  dup3\n  0x1f\n  lt\n  tag_9\n  jumpi\n  dup1\n  mload\n  not(0xff)\n  and\n  dup4\n  dup1\n  add\n  or\n  dup6\n  sstore\n  jump(tag_7)\ntag_9:\n  dup3\n  dup1\n  add\n  0x01\n  add\n  dup6\n  sstore\n  dup3\n  iszero\n  tag_7\n  jumpi\n  swap2\n  dup3\n  add\ntag_10:\n  dup3\n  dup2\n  gt\n  iszero\n  tag_11\n  jumpi\n  dup3\n  mload\n  dup3\n  sstore\n  swap2\n  0x20\n  add\n  swap2\n  swap1\n  0x01\n  add\n  swap1\n  jump(tag_10)\ntag_11:\ntag_7:\n  pop\n  swap1\n  pop\n  tag_12\n  swap2\n  swap1\n  tag_13\n  jump\t// in\ntag_12:\n  pop\n  swap1\n  jump\t// out\ntag_13:\ntag_14:\n  dup1\n  dup3\n  gt\n  iszero\n  tag_15\n  jumpi\n  0x00\n  dup2\n  0x00\n  swap1\n  sstore\n  pop\n  0x01\n  add\n  jump(tag_14)\ntag_15:\n  pop\n  swap1\n  jump\t// out\n    /* \"#utility.yul\":7:327   */\ntag_6:\n  0x00\n    /* \"#utility.yul\":88:89   */\n  0x02\n    /* \"#utility.yul\":82:86   */\n  dup3\n    /* \"#utility.yul\":78:90   */\n  div\n    /* \"#utility.yul\":68:90   */\n  swap1\n  pop\n    /* \"#utility.yul\":135:136   */\n  0x01\n    /* \"#utility.yul\":129:133   */\n  dup3\n    /* \"#utility.yul\":125:137   */\n  and\n    /* \"#utility.yul\":156:174   */\n  dup1\n    /* \"#utility.yul\":146:148   */\n  tag_18\n  jumpi\n    /* \"#utility.yul\":212:216   */\n  0x7f\n    /* \"#utility.yul\":204:210   */\n  dup3\n    /* \"#utility.yul\":200:217   */\n  and\n    /* \"#utility.yul\":190:217   */\n  swap2\n  pop\n    /* \"#utility.yul\":146:148   */\ntag_18:\n    /* \"#utility.yul\":274:276   */\n  0x20\n    /* \"#utility.yul\":266:272   */\n  dup3\n    /* \"#utility.yul\":263:277   */\n  lt\n    /* \"#utility.yul\":243:261   */\n  dup2\n    /* \"#utility.yul\":240:278   */\n  eq\n    /* \"#utility.yul\":237:239   */\n  iszero\n  tag_19\n  jumpi\n    /* \"#utility.yul\":293:311   */\n  tag_20\n  tag_21\n  jump\t// in\ntag_20:\n    /* \"#utility.yul\":237:239   */\ntag_19:\n    /* \"#utility.yul\":58:327   */\n  pop\n  swap2\n  swap1\n  pop\n  jump\t// out\n    /* \"#utility.yul\":333:513   */\ntag_21:\n    /* \"#utility.yul\":381:458   */\n  0x4e487b7100000000000000000000000000000000000000000000000000000000\n    /* \"#utility.yul\":378:379   */\n  0x00\n    /* \"#utility.yul\":371:459   */\n  mstore\n    /* \"#utility.yul\":478:482   */\n  0x22\n    /* \"#utility.yul\":475:476   */\n  0x04\n    /* \"#utility.yul\":468:483   */\n  mstore\n    /* \"#utility.yul\":502:506   */\n  0x24\n    /* \"#utility.yul\":499:500   */\n  0x00\n    /* \"#utility.yul\":492:507   */\n  revert\n    /* \"Udemy_Contracts/Types.sol\":56:562  contract TypesContract{... */\ntag_4:\n  dataSize(sub_0)\n  dup1\n  dataOffset(sub_0)\n  0x00\n  codecopy\n  0x00\n  return\nstop\n\nsub_0: assembly {\n        /* \"Udemy_Contracts/Types.sol\":56:562  contract TypesContract{... */\n      mstore(0x40, 0x80)\n      callvalue\n      dup1\n      iszero\n      tag_1\n      jumpi\n      0x00\n      dup1\n      revert\n    tag_1:\n      pop\n      jumpi(tag_2, lt(calldatasize, 0x04))\n      shr(0xe0, calldataload(0x00))\n      dup1\n      0x2cb777a6\n      gt\n      tag_10\n      jumpi\n      dup1\n      0x2cb777a6\n      eq\n      tag_6\n      jumpi\n      dup1\n      0x492bfa18\n      eq\n      tag_7\n      jumpi\n      dup1\n      0xa7dbce1c\n      eq\n      tag_8\n      jumpi\n      dup1\n      0xe2a4b2af\n      eq\n      tag_9\n      jumpi\n      jump(tag_2)\n    tag_10:\n      dup1\n      0x06540f7e\n      eq\n      tag_3\n      jumpi\n      dup1\n      0x20965255\n      eq\n      tag_4\n      jumpi\n      dup1\n      0x26b85ee1\n      eq\n      tag_5\n      jumpi\n    tag_2:\n      0x00\n      dup1\n      revert\n        /* \"Udemy_Contracts/Types.sol\":109:132  uint  public myUint = 2 */\n    tag_3:\n      tag_11\n      tag_12\n      jump\t// in\n    tag_11:\n      mload(0x40)\n      tag_13\n      swap2\n      swap1\n      tag_14\n      jump\t// in\n    tag_13:\n      mload(0x40)\n      dup1\n      swap2\n      sub\n      swap1\n      return\n        /* \"Udemy_Contracts/Types.sol\":462:560  function getValue() public pure returns(uint){... */\n    tag_4:\n      tag_15\n      tag_16\n      jump\t// in\n    tag_15:\n      mload(0x40)\n      tag_17\n      swap2\n      swap1\n      tag_14\n      jump\t// in\n    tag_17:\n      mload(0x40)\n      dup1\n      swap2\n      sub\n      swap1\n      return\n        /* \"Udemy_Contracts/Types.sol\":290:359  address public myAddress = 0x48FFBBc808740181080B107F6D01cF878E16585a */\n    tag_5:\n      tag_18\n      tag_19\n      jump\t// in\n    tag_18:\n      mload(0x40)\n      tag_20\n      swap2\n      swap1\n      tag_21\n      jump\t// in\n    tag_20:\n      mload(0x40)\n      dup1\n      swap2\n      sub\n      swap1\n      return\n        /* \"Udemy_Contracts/Types.sol\":216:237  int public myInt = -1 */\n    tag_6:\n      tag_22\n      tag_23\n      jump\t// in\n    tag_22:\n      mload(0x40)\n      tag_24\n      swap2\n      swap1\n      tag_25\n      jump\t// in\n    tag_24:\n      mload(0x40)\n      dup1\n      swap2\n      sub\n      swap1\n      return\n        /* \"Udemy_Contracts/Types.sol\":244:283  string public myString = \"Hello Web3.0\" */\n    tag_7:\n      tag_26\n      tag_27\n      jump\t// in\n    tag_26:\n      mload(0x40)\n      tag_28\n      swap2\n      swap1\n      tag_29\n      jump\t// in\n    tag_28:\n      mload(0x40)\n      dup1\n      swap2\n      sub\n      swap1\n      return\n        /* \"Udemy_Contracts/Types.sol\":152:180  uint256 public myUint256 = 1 */\n    tag_8:\n      tag_30\n      tag_31\n      jump\t// in\n    tag_30:\n      mload(0x40)\n      tag_32\n      swap2\n      swap1\n      tag_14\n      jump\t// in\n    tag_32:\n      mload(0x40)\n      dup1\n      swap2\n      sub\n      swap1\n      return\n        /* \"Udemy_Contracts/Types.sol\":186:210  uint8 public myUint8 = 1 */\n    tag_9:\n      tag_33\n      tag_34\n      jump\t// in\n    tag_33:\n      mload(0x40)\n      tag_35\n      swap2\n      swap1\n      tag_36\n      jump\t// in\n    tag_35:\n      mload(0x40)\n      dup1\n      swap2\n      sub\n      swap1\n      return\n        /* \"Udemy_Contracts/Types.sol\":109:132  uint  public myUint = 2 */\n    tag_12:\n      sload(0x00)\n      dup2\n      jump\t// out\n        /* \"Udemy_Contracts/Types.sol\":462:560  function getValue() public pure returns(uint){... */\n    tag_16:\n        /* \"Udemy_Contracts/Types.sol\":502:506  uint */\n      0x00\n        /* \"Udemy_Contracts/Types.sol\":517:527  uint value */\n      dup1\n        /* \"Udemy_Contracts/Types.sol\":530:531  1 */\n      0x01\n        /* \"Udemy_Contracts/Types.sol\":517:531  uint value = 1 */\n      swap1\n      pop\n        /* \"Udemy_Contracts/Types.sol\":548:553  value */\n      dup1\n        /* \"Udemy_Contracts/Types.sol\":541:553  return value */\n      swap2\n      pop\n      pop\n        /* \"Udemy_Contracts/Types.sol\":462:560  function getValue() public pure returns(uint){... */\n      swap1\n      jump\t// out\n        /* \"Udemy_Contracts/Types.sol\":290:359  address public myAddress = 0x48FFBBc808740181080B107F6D01cF878E16585a */\n    tag_19:\n      0x05\n      0x00\n      swap1\n      sload\n      swap1\n      0x0100\n      exp\n      swap1\n      div\n      0xffffffffffffffffffffffffffffffffffffffff\n      and\n      dup2\n      jump\t// out\n        /* \"Udemy_Contracts/Types.sol\":216:237  int public myInt = -1 */\n    tag_23:\n      sload(0x03)\n      dup2\n      jump\t// out\n        /* \"Udemy_Contracts/Types.sol\":244:283  string public myString = \"Hello Web3.0\" */\n    tag_27:\n      0x04\n      dup1\n      sload\n      tag_38\n      swap1\n      tag_39\n      jump\t// in\n    tag_38:\n      dup1\n      0x1f\n      add\n      0x20\n      dup1\n      swap2\n      div\n      mul\n      0x20\n      add\n      mload(0x40)\n      swap1\n      dup2\n      add\n      0x40\n      mstore\n      dup1\n      swap3\n      swap2\n      swap1\n      dup2\n      dup2\n      mstore\n      0x20\n      add\n      dup3\n      dup1\n      sload\n      tag_40\n      swap1\n      tag_39\n      jump\t// in\n    tag_40:\n      dup1\n      iszero\n      tag_41\n      jumpi\n      dup1\n      0x1f\n      lt\n      tag_42\n      jumpi\n      0x0100\n      dup1\n      dup4\n      sload\n      div\n      mul\n      dup4\n      mstore\n      swap2\n      0x20\n      add\n      swap2\n      jump(tag_41)\n    tag_42:\n      dup3\n      add\n      swap2\n      swap1\n      0x00\n      mstore\n      keccak256(0x00, 0x20)\n      swap1\n    tag_43:\n      dup2\n      sload\n      dup2\n      mstore\n      swap1\n      0x01\n      add\n      swap1\n      0x20\n      add\n      dup1\n      dup4\n      gt\n      tag_43\n      jumpi\n      dup3\n      swap1\n      sub\n      0x1f\n      and\n      dup3\n      add\n      swap2\n    tag_41:\n      pop\n      pop\n      pop\n      pop\n      pop\n      dup2\n      jump\t// out\n        /* \"Udemy_Contracts/Types.sol\":152:180  uint256 public myUint256 = 1 */\n    tag_31:\n      sload(0x01)\n      dup2\n      jump\t// out\n        /* \"Udemy_Contracts/Types.sol\":186:210  uint8 public myUint8 = 1 */\n    tag_34:\n      0x02\n      0x00\n      swap1\n      sload\n      swap1\n      0x0100\n      exp\n      swap1\n      div\n      0xff\n      and\n      dup2\n      jump\t// out\n        /* \"#utility.yul\":7:125   */\n    tag_45:\n        /* \"#utility.yul\":94:118   */\n      tag_47\n        /* \"#utility.yul\":112:117   */\n      dup2\n        /* \"#utility.yul\":94:118   */\n      tag_48\n      jump\t// in\n    tag_47:\n        /* \"#utility.yul\":89:92   */\n      dup3\n        /* \"#utility.yul\":82:119   */\n      mstore\n        /* \"#utility.yul\":72:125   */\n      pop\n      pop\n      jump\t// out\n        /* \"#utility.yul\":131:246   */\n    tag_49:\n        /* \"#utility.yul\":216:239   */\n      tag_51\n        /* \"#utility.yul\":233:238   */\n      dup2\n        /* \"#utility.yul\":216:239   */\n      tag_52\n      jump\t// in\n    tag_51:\n        /* \"#utility.yul\":211:214   */\n      dup3\n        /* \"#utility.yul\":204:240   */\n      mstore\n        /* \"#utility.yul\":194:246   */\n      pop\n      pop\n      jump\t// out\n        /* \"#utility.yul\":252:616   */\n    tag_53:\n      0x00\n        /* \"#utility.yul\":368:407   */\n      tag_55\n        /* \"#utility.yul\":401:406   */\n      dup3\n        /* \"#utility.yul\":368:407   */\n      tag_56\n      jump\t// in\n    tag_55:\n        /* \"#utility.yul\":423:494   */\n      tag_57\n        /* \"#utility.yul\":487:493   */\n      dup2\n        /* \"#utility.yul\":482:485   */\n      dup6\n        /* \"#utility.yul\":423:494   */\n      tag_58\n      jump\t// in\n    tag_57:\n        /* \"#utility.yul\":416:494   */\n      swap4\n      pop\n        /* \"#utility.yul\":503:555   */\n      tag_59\n        /* \"#utility.yul\":548:554   */\n      dup2\n        /* \"#utility.yul\":543:546   */\n      dup6\n        /* \"#utility.yul\":536:540   */\n      0x20\n        /* \"#utility.yul\":529:534   */\n      dup7\n        /* \"#utility.yul\":525:541   */\n      add\n        /* \"#utility.yul\":503:555   */\n      tag_60\n      jump\t// in\n    tag_59:\n        /* \"#utility.yul\":580:609   */\n      tag_61\n        /* \"#utility.yul\":602:608   */\n      dup2\n        /* \"#utility.yul\":580:609   */\n      tag_62\n      jump\t// in\n    tag_61:\n        /* \"#utility.yul\":575:578   */\n      dup5\n        /* \"#utility.yul\":571:610   */\n      add\n        /* \"#utility.yul\":564:610   */\n      swap2\n      pop\n        /* \"#utility.yul\":344:616   */\n      pop\n      swap3\n      swap2\n      pop\n      pop\n      jump\t// out\n        /* \"#utility.yul\":622:740   */\n    tag_63:\n        /* \"#utility.yul\":709:733   */\n      tag_65\n        /* \"#utility.yul\":727:732   */\n      dup2\n        /* \"#utility.yul\":709:733   */\n      tag_66\n      jump\t// in\n    tag_65:\n        /* \"#utility.yul\":704:707   */\n      dup3\n        /* \"#utility.yul\":697:734   */\n      mstore\n        /* \"#utility.yul\":687:740   */\n      pop\n      pop\n      jump\t// out\n        /* \"#utility.yul\":746:858   */\n    tag_67:\n        /* \"#utility.yul\":829:851   */\n      tag_69\n        /* \"#utility.yul\":845:850   */\n      dup2\n        /* \"#utility.yul\":829:851   */\n      tag_70\n      jump\t// in\n    tag_69:\n        /* \"#utility.yul\":824:827   */\n      dup3\n        /* \"#utility.yul\":817:852   */\n      mstore\n        /* \"#utility.yul\":807:858   */\n      pop\n      pop\n      jump\t// out\n        /* \"#utility.yul\":864:1086   */\n    tag_21:\n      0x00\n        /* \"#utility.yul\":995:997   */\n      0x20\n        /* \"#utility.yul\":984:993   */\n      dup3\n        /* \"#utility.yul\":980:998   */\n      add\n        /* \"#utility.yul\":972:998   */\n      swap1\n      pop\n        /* \"#utility.yul\":1008:1079   */\n      tag_72\n        /* \"#utility.yul\":1076:1077   */\n      0x00\n        /* \"#utility.yul\":1065:1074   */\n      dup4\n        /* \"#utility.yul\":1061:1078   */\n      add\n        /* \"#utility.yul\":1052:1058   */\n      dup5\n        /* \"#utility.yul\":1008:1079   */\n      tag_45\n      jump\t// in\n    tag_72:\n        /* \"#utility.yul\":962:1086   */\n      swap3\n      swap2\n      pop\n      pop\n      jump\t// out\n        /* \"#utility.yul\":1092:1310   */\n    tag_25:\n      0x00\n        /* \"#utility.yul\":1221:1223   */\n      0x20\n        /* \"#utility.yul\":1210:1219   */\n      dup3\n        /* \"#utility.yul\":1206:1224   */\n      add\n        /* \"#utility.yul\":1198:1224   */\n      swap1\n      pop\n        /* \"#utility.yul\":1234:1303   */\n      tag_74\n        /* \"#utility.yul\":1300:1301   */\n      0x00\n        /* \"#utility.yul\":1289:1298   */\n      dup4\n        /* \"#utility.yul\":1285:1302   */\n      add\n        /* \"#utility.yul\":1276:1282   */\n      dup5\n        /* \"#utility.yul\":1234:1303   */\n      tag_49\n      jump\t// in\n    tag_74:\n        /* \"#utility.yul\":1188:1310   */\n      swap3\n      swap2\n      pop\n      pop\n      jump\t// out\n        /* \"#utility.yul\":1316:1629   */\n    tag_29:\n      0x00\n        /* \"#utility.yul\":1467:1469   */\n      0x20\n        /* \"#utility.yul\":1456:1465   */\n      dup3\n        /* \"#utility.yul\":1452:1470   */\n      add\n        /* \"#utility.yul\":1444:1470   */\n      swap1\n      pop\n        /* \"#utility.yul\":1516:1525   */\n      dup2\n        /* \"#utility.yul\":1510:1514   */\n      dup2\n        /* \"#utility.yul\":1506:1526   */\n      sub\n        /* \"#utility.yul\":1502:1503   */\n      0x00\n        /* \"#utility.yul\":1491:1500   */\n      dup4\n        /* \"#utility.yul\":1487:1504   */\n      add\n        /* \"#utility.yul\":1480:1527   */\n      mstore\n        /* \"#utility.yul\":1544:1622   */\n      tag_76\n        /* \"#utility.yul\":1617:1621   */\n      dup2\n        /* \"#utility.yul\":1608:1614   */\n      dup5\n        /* \"#utility.yul\":1544:1622   */\n      tag_53\n      jump\t// in\n    tag_76:\n        /* \"#utility.yul\":1536:1622   */\n      swap1\n      pop\n        /* \"#utility.yul\":1434:1629   */\n      swap3\n      swap2\n      pop\n      pop\n      jump\t// out\n        /* \"#utility.yul\":1635:1857   */\n    tag_14:\n      0x00\n        /* \"#utility.yul\":1766:1768   */\n      0x20\n        /* \"#utility.yul\":1755:1764   */\n      dup3\n        /* \"#utility.yul\":1751:1769   */\n      add\n        /* \"#utility.yul\":1743:1769   */\n      swap1\n      pop\n        /* \"#utility.yul\":1779:1850   */\n      tag_78\n        /* \"#utility.yul\":1847:1848   */\n      0x00\n        /* \"#utility.yul\":1836:1845   */\n      dup4\n        /* \"#utility.yul\":1832:1849   */\n      add\n        /* \"#utility.yul\":1823:1829   */\n      dup5\n        /* \"#utility.yul\":1779:1850   */\n      tag_63\n      jump\t// in\n    tag_78:\n        /* \"#utility.yul\":1733:1857   */\n      swap3\n      swap2\n      pop\n      pop\n      jump\t// out\n        /* \"#utility.yul\":1863:2077   */\n    tag_36:\n      0x00\n        /* \"#utility.yul\":1990:1992   */\n      0x20\n        /* \"#utility.yul\":1979:1988   */\n      dup3\n        /* \"#utility.yul\":1975:1993   */\n      add\n        /* \"#utility.yul\":1967:1993   */\n      swap1\n      pop\n        /* \"#utility.yul\":2003:2070   */\n      tag_80\n        /* \"#utility.yul\":2067:2068   */\n      0x00\n        /* \"#utility.yul\":2056:2065   */\n      dup4\n        /* \"#utility.yul\":2052:2069   */\n      add\n        /* \"#utility.yul\":2043:2049   */\n      dup5\n        /* \"#utility.yul\":2003:2070   */\n      tag_67\n      jump\t// in\n    tag_80:\n        /* \"#utility.yul\":1957:2077   */\n      swap3\n      swap2\n      pop\n      pop\n      jump\t// out\n        /* \"#utility.yul\":2083:2182   */\n    tag_56:\n      0x00\n        /* \"#utility.yul\":2169:2174   */\n      dup2\n        /* \"#utility.yul\":2163:2175   */\n      mload\n        /* \"#utility.yul\":2153:2175   */\n      swap1\n      pop\n        /* \"#utility.yul\":2142:2182   */\n      swap2\n      swap1\n      pop\n      jump\t// out\n        /* \"#utility.yul\":2188:2357   */\n    tag_58:\n      0x00\n        /* \"#utility.yul\":2306:2312   */\n      dup3\n        /* \"#utility.yul\":2301:2304   */\n      dup3\n        /* \"#utility.yul\":2294:2313   */\n      mstore\n        /* \"#utility.yul\":2346:2350   */\n      0x20\n        /* \"#utility.yul\":2341:2344   */\n      dup3\n        /* \"#utility.yul\":2337:2351   */\n      add\n        /* \"#utility.yul\":2322:2351   */\n      swap1\n      pop\n        /* \"#utility.yul\":2284:2357   */\n      swap3\n      swap2\n      pop\n      pop\n      jump\t// out\n        /* \"#utility.yul\":2363:2459   */\n    tag_48:\n      0x00\n        /* \"#utility.yul\":2429:2453   */\n      tag_84\n        /* \"#utility.yul\":2447:2452   */\n      dup3\n        /* \"#utility.yul\":2429:2453   */\n      tag_85\n      jump\t// in\n    tag_84:\n        /* \"#utility.yul\":2418:2453   */\n      swap1\n      pop\n        /* \"#utility.yul\":2408:2459   */\n      swap2\n      swap1\n      pop\n      jump\t// out\n        /* \"#utility.yul\":2465:2541   */\n    tag_52:\n      0x00\n        /* \"#utility.yul\":2530:2535   */\n      dup2\n        /* \"#utility.yul\":2519:2535   */\n      swap1\n      pop\n        /* \"#utility.yul\":2509:2541   */\n      swap2\n      swap1\n      pop\n      jump\t// out\n        /* \"#utility.yul\":2547:2673   */\n    tag_85:\n      0x00\n        /* \"#utility.yul\":2624:2666   */\n      0xffffffffffffffffffffffffffffffffffffffff\n        /* \"#utility.yul\":2617:2622   */\n      dup3\n        /* \"#utility.yul\":2613:2667   */\n      and\n        /* \"#utility.yul\":2602:2667   */\n      swap1\n      pop\n        /* \"#utility.yul\":2592:2673   */\n      swap2\n      swap1\n      pop\n      jump\t// out\n        /* \"#utility.yul\":2679:2756   */\n    tag_66:\n      0x00\n        /* \"#utility.yul\":2745:2750   */\n      dup2\n        /* \"#utility.yul\":2734:2750   */\n      swap1\n      pop\n        /* \"#utility.yul\":2724:2756   */\n      swap2\n      swap1\n      pop\n      jump\t// out\n        /* \"#utility.yul\":2762:2848   */\n    tag_70:\n      0x00\n        /* \"#utility.yul\":2837:2841   */\n      0xff\n        /* \"#utility.yul\":2830:2835   */\n      dup3\n        /* \"#utility.yul\":2826:2842   */\n      and\n        /* \"#utility.yul\":2815:2842   */\n      swap1\n      pop\n        /* \"#utility.yul\":2805:2848   */\n      swap2\n      swap1\n      pop\n      jump\t// out\n        /* \"#utility.yul\":2854:3161   */\n    tag_60:\n        /* \"#utility.yul\":2922:2923   */\n      0x00\n        /* \"#utility.yul\":2932:3045   */\n    tag_91:\n        /* \"#utility.yul\":2946:2952   */\n      dup4\n        /* \"#utility.yul\":2943:2944   */\n      dup2\n        /* \"#utility.yul\":2940:2953   */\n      lt\n        /* \"#utility.yul\":2932:3045   */\n      iszero\n      tag_93\n      jumpi\n        /* \"#utility.yul\":3031:3032   */\n      dup1\n        /* \"#utility.yul\":3026:3029   */\n      dup3\n        /* \"#utility.yul\":3022:3033   */\n      add\n        /* \"#utility.yul\":3016:3034   */\n      mload\n        /* \"#utility.yul\":3012:3013   */\n      dup2\n        /* \"#utility.yul\":3007:3010   */\n      dup5\n        /* \"#utility.yul\":3003:3014   */\n      add\n        /* \"#utility.yul\":2996:3035   */\n      mstore\n        /* \"#utility.yul\":2968:2970   */\n      0x20\n        /* \"#utility.yul\":2965:2966   */\n      dup2\n        /* \"#utility.yul\":2961:2971   */\n      add\n        /* \"#utility.yul\":2956:2971   */\n      swap1\n      pop\n        /* \"#utility.yul\":2932:3045   */\n      jump(tag_91)\n    tag_93:\n        /* \"#utility.yul\":3063:3069   */\n      dup4\n        /* \"#utility.yul\":3060:3061   */\n      dup2\n        /* \"#utility.yul\":3057:3070   */\n      gt\n        /* \"#utility.yul\":3054:3056   */\n      iszero\n      tag_94\n      jumpi\n        /* \"#utility.yul\":3143:3144   */\n      0x00\n        /* \"#utility.yul\":3134:3140   */\n      dup5\n        /* \"#utility.yul\":3129:3132   */\n      dup5\n        /* \"#utility.yul\":3125:3141   */\n      add\n        /* \"#utility.yul\":3118:3145   */\n      mstore\n        /* \"#utility.yul\":3054:3056   */\n    tag_94:\n        /* \"#utility.yul\":2903:3161   */\n      pop\n      pop\n      pop\n      pop\n      jump\t// out\n        /* \"#utility.yul\":3167:3487   */\n    tag_39:\n      0x00\n        /* \"#utility.yul\":3248:3249   */\n      0x02\n        /* \"#utility.yul\":3242:3246   */\n      dup3\n        /* \"#utility.yul\":3238:3250   */\n      div\n        /* \"#utility.yul\":3228:3250   */\n      swap1\n      pop\n        /* \"#utility.yul\":3295:3296   */\n      0x01\n        /* \"#utility.yul\":3289:3293   */\n      dup3\n        /* \"#utility.yul\":3285:3297   */\n      and\n        /* \"#utility.yul\":3316:3334   */\n      dup1\n        /* \"#utility.yul\":3306:3308   */\n      tag_96\n      jumpi\n        /* \"#utility.yul\":3372:3376   */\n      0x7f\n        /* \"#utility.yul\":3364:3370   */\n      dup3\n        /* \"#utility.yul\":3360:3377   */\n      and\n        /* \"#utility.yul\":3350:3377   */\n      swap2\n      pop\n        /* \"#utility.yul\":3306:3308   */\n    tag_96:\n        /* \"#utility.yul\":3434:3436   */\n      0x20\n        /* \"#utility.yul\":3426:3432   */\n      dup3\n        /* \"#utility.yul\":3423:3437   */\n      lt\n        /* \"#utility.yul\":3403:3421   */\n      dup2\n        /* \"#utility.yul\":3400:3438   */\n      eq\n        /* \"#utility.yul\":3397:3399   */\n      iszero\n      tag_97\n      jumpi\n        /* \"#utility.yul\":3453:3471   */\n      tag_98\n      tag_99\n      jump\t// in\n    tag_98:\n        /* \"#utility.yul\":3397:3399   */\n    tag_97:\n        /* \"#utility.yul\":3218:3487   */\n      pop\n      swap2\n      swap1\n      pop\n      jump\t// out\n        /* \"#utility.yul\":3493:3673   */\n    tag_99:\n        /* \"#utility.yul\":3541:3618   */\n      0x4e487b7100000000000000000000000000000000000000000000000000000000\n        /* \"#utility.yul\":3538:3539   */\n      0x00\n        /* \"#utility.yul\":3531:3619   */\n      mstore\n        /* \"#utility.yul\":3638:3642   */\n      0x22\n        /* \"#utility.yul\":3635:3636   */\n      0x04\n        /* \"#utility.yul\":3628:3643   */\n      mstore\n        /* \"#utility.yul\":3662:3666   */\n      0x24\n        /* \"#utility.yul\":3659:3660   */\n      0x00\n        /* \"#utility.yul\":3652:3667   */\n      revert\n        /* \"#utility.yul\":3679:3781   */\n    tag_62:\n      0x00\n        /* \"#utility.yul\":3771:3773   */\n      0x1f\n        /* \"#utility.yul\":3767:3774   */\n      not\n        /* \"#utility.yul\":3762:3764   */\n      0x1f\n        /* \"#utility.yul\":3755:3760   */\n      dup4\n        /* \"#utility.yul\":3751:3765   */\n      add\n        /* \"#utility.yul\":3747:3775   */\n      and\n        /* \"#utility.yul\":3737:3775   */\n      swap1\n      pop\n        /* \"#utility.yul\":3727:3781   */\n      swap2\n      swap1\n      pop\n      jump\t// out\n\n    auxdata: 0xa2646970667358221220c840415ed73f6baf544e5f34103739d7a6cf1412e625159f62095b321e12e16264736f6c63430008000033\n}\n",
				"bytecode": {
					"linkReferences": {},
					"object": "60806040526002600055600180556001600260006101000a81548160ff021916908360ff1602179055507fffffffffffffffffffffffffffffffffffffffffffffffffffffffffffffffff6003556040518060400160405280600c81526020017f48656c6c6f20576562332e30000000000000000000000000000000000000000081525060049080519060200190610098929190610100565b507348ffbbc808740181080b107f6d01cf878e16585a600560006101000a81548173ffffffffffffffffffffffffffffffffffffffff021916908373ffffffffffffffffffffffffffffffffffffffff1602179055503480156100fa57600080fd5b50610204565b82805461010c906101a3565b90600052602060002090601f01602090048101928261012e5760008555610175565b82601f1061014757805160ff1916838001178555610175565b82800160010185558215610175579182015b82811115610174578251825591602001919060010190610159565b5b5090506101829190610186565b5090565b5b8082111561019f576000816000905550600101610187565b5090565b600060028204905060018216806101bb57607f821691505b602082108114156101cf576101ce6101d5565b5b50919050565b7f4e487b7100000000000000000000000000000000000000000000000000000000600052602260045260246000fd5b610488806102136000396000f3fe608060405234801561001057600080fd5b506004361061007d5760003560e01c80632cb777a61161005b5780632cb777a6146100dc578063492bfa18146100fa578063a7dbce1c14610118578063e2a4b2af146101365761007d565b806306540f7e1461008257806320965255146100a057806326b85ee1146100be575b600080fd5b61008a610154565b6040516100979190610308565b60405180910390f35b6100a861015a565b6040516100b59190610308565b60405180910390f35b6100c6610168565b6040516100d391906102b0565b60405180910390f35b6100e461018e565b6040516100f191906102cb565b60405180910390f35b610102610194565b60405161010f91906102e6565b60405180910390f35b610120610222565b60405161012d9190610308565b60405180910390f35b61013e610228565b60405161014b9190610323565b60405180910390f35b60005481565b600080600190508091505090565b600560009054906101000a900473ffffffffffffffffffffffffffffffffffffffff1681565b60035481565b600480546101a1906103e0565b80601f01602080910402602001604051908101604052809291908181526020018280546101cd906103e0565b801561021a5780601f106101ef5761010080835404028352916020019161021a565b820191906000526020600020905b8154815290600101906020018083116101fd57829003601f168201915b505050505081565b60015481565b600260009054906101000a900460ff1681565b6102448161035a565b82525050565b6102538161036c565b82525050565b60006102648261033e565b61026e8185610349565b935061027e8185602086016103ad565b61028781610441565b840191505092915050565b61029b81610396565b82525050565b6102aa816103a0565b82525050565b60006020820190506102c5600083018461023b565b92915050565b60006020820190506102e0600083018461024a565b92915050565b600060208201905081810360008301526103008184610259565b905092915050565b600060208201905061031d6000830184610292565b92915050565b600060208201905061033860008301846102a1565b92915050565b600081519050919050565b600082825260208201905092915050565b600061036582610376565b9050919050565b6000819050919050565b600073ffffffffffffffffffffffffffffffffffffffff82169050919050565b6000819050919050565b600060ff82169050919050565b60005b838110156103cb5780820151818401526020810190506103b0565b838111156103da576000848401525b50505050565b600060028204905060018216806103f857607f821691505b6020821081141561040c5761040b610412565b5b50919050565b7f4e487b7100000000000000000000000000000000000000000000000000000000600052602260045260246000fd5b6000601f19601f830116905091905056fea2646970667358221220c840415ed73f6baf544e5f34103739d7a6cf1412e625159f62095b321e12e16264736f6c63430008000033",
					"opcodes": "PUSH1 0x80 PUSH1 0x40 MSTORE PUSH1 0x2 PUSH1 0x0 SSTORE PUSH1 0x1 DUP1 SSTORE PUSH1 0x1 PUSH1 0x2 PUSH1 0x0 PUSH2 0x100 EXP DUP2 SLOAD DUP2 PUSH1 0xFF MUL NOT AND SWAP1 DUP4 PUSH1 0xFF AND MUL OR SWAP1 SSTORE POP PUSH32 0xFFFFFFFFFFFFFFFFFFFFFFFFFFFFFFFFFFFFFFFFFFFFFFFFFFFFFFFFFFFFFFFF PUSH1 0x3 SSTORE PUSH1 0x40 MLOAD DUP1 PUSH1 0x40 ADD PUSH1 0x40 MSTORE DUP1 PUSH1 0xC DUP2 MSTORE PUSH1 0x20 ADD PUSH32 0x48656C6C6F20576562332E300000000000000000000000000000000000000000 DUP2 MSTORE POP PUSH1 0x4 SWAP1 DUP1 MLOAD SWAP1 PUSH1 0x20 ADD SWAP1 PUSH2 0x98 SWAP3 SWAP2 SWAP1 PUSH2 0x100 JUMP JUMPDEST POP PUSH20 0x48FFBBC808740181080B107F6D01CF878E16585A PUSH1 0x5 PUSH1 0x0 PUSH2 0x100 EXP DUP2 SLOAD DUP2 PUSH20 0xFFFFFFFFFFFFFFFFFFFFFFFFFFFFFFFFFFFFFFFF MUL NOT AND SWAP1 DUP4 PUSH20 0xFFFFFFFFFFFFFFFFFFFFFFFFFFFFFFFFFFFFFFFF AND MUL OR SWAP1 SSTORE POP CALLVALUE DUP1 ISZERO PUSH2 0xFA JUMPI PUSH1 0x0 DUP1 REVERT JUMPDEST POP PUSH2 0x204 JUMP JUMPDEST DUP3 DUP1 SLOAD PUSH2 0x10C SWAP1 PUSH2 0x1A3 JUMP JUMPDEST SWAP1 PUSH1 0x0 MSTORE PUSH1 0x20 PUSH1 0x0 KECCAK256 SWAP1 PUSH1 0x1F ADD PUSH1 0x20 SWAP1 DIV DUP2 ADD SWAP3 DUP3 PUSH2 0x12E JUMPI PUSH1 0x0 DUP6 SSTORE PUSH2 0x175 JUMP JUMPDEST DUP3 PUSH1 0x1F LT PUSH2 0x147 JUMPI DUP1 MLOAD PUSH1 0xFF NOT AND DUP4 DUP1 ADD OR DUP6 SSTORE PUSH2 0x175 JUMP JUMPDEST DUP3 DUP1 ADD PUSH1 0x1 ADD DUP6 SSTORE DUP3 ISZERO PUSH2 0x175 JUMPI SWAP2 DUP3 ADD JUMPDEST DUP3 DUP2 GT ISZERO PUSH2 0x174 JUMPI DUP3 MLOAD DUP3 SSTORE SWAP2 PUSH1 0x20 ADD SWAP2 SWAP1 PUSH1 0x1 ADD SWAP1 PUSH2 0x159 JUMP JUMPDEST JUMPDEST POP SWAP1 POP PUSH2 0x182 SWAP2 SWAP1 PUSH2 0x186 JUMP JUMPDEST POP SWAP1 JUMP JUMPDEST JUMPDEST DUP1 DUP3 GT ISZERO PUSH2 0x19F JUMPI PUSH1 0x0 DUP2 PUSH1 0x0 SWAP1 SSTORE POP PUSH1 0x1 ADD PUSH2 0x187 JUMP JUMPDEST POP SWAP1 JUMP JUMPDEST PUSH1 0x0 PUSH1 0x2 DUP3 DIV SWAP1 POP PUSH1 0x1 DUP3 AND DUP1 PUSH2 0x1BB JUMPI PUSH1 0x7F DUP3 AND SWAP2 POP JUMPDEST PUSH1 0x20 DUP3 LT DUP2 EQ ISZERO PUSH2 0x1CF JUMPI PUSH2 0x1CE PUSH2 0x1D5 JUMP JUMPDEST JUMPDEST POP SWAP2 SWAP1 POP JUMP JUMPDEST PUSH32 0x4E487B7100000000000000000000000000000000000000000000000000000000 PUSH1 0x0 MSTORE PUSH1 0x22 PUSH1 0x4 MSTORE PUSH1 0x24 PUSH1 0x0 REVERT JUMPDEST PUSH2 0x488 DUP1 PUSH2 0x213 PUSH1 0x0 CODECOPY PUSH1 0x0 RETURN INVALID PUSH1 0x80 PUSH1 0x40 MSTORE CALLVALUE DUP1 ISZERO PUSH2 0x10 JUMPI PUSH1 0x0 DUP1 REVERT JUMPDEST POP PUSH1 0x4 CALLDATASIZE LT PUSH2 0x7D JUMPI PUSH1 0x0 CALLDATALOAD PUSH1 0xE0 SHR DUP1 PUSH4 0x2CB777A6 GT PUSH2 0x5B JUMPI DUP1 PUSH4 0x2CB777A6 EQ PUSH2 0xDC JUMPI DUP1 PUSH4 0x492BFA18 EQ PUSH2 0xFA JUMPI DUP1 PUSH4 0xA7DBCE1C EQ PUSH2 0x118 JUMPI DUP1 PUSH4 0xE2A4B2AF EQ PUSH2 0x136 JUMPI PUSH2 0x7D JUMP JUMPDEST DUP1 PUSH4 0x6540F7E EQ PUSH2 0x82 JUMPI DUP1 PUSH4 0x20965255 EQ PUSH2 0xA0 JUMPI DUP1 PUSH4 0x26B85EE1 EQ PUSH2 0xBE JUMPI JUMPDEST PUSH1 0x0 DUP1 REVERT JUMPDEST PUSH2 0x8A PUSH2 0x154 JUMP JUMPDEST PUSH1 0x40 MLOAD PUSH2 0x97 SWAP2 SWAP1 PUSH2 0x308 JUMP JUMPDEST PUSH1 0x40 MLOAD DUP1 SWAP2 SUB SWAP1 RETURN JUMPDEST PUSH2 0xA8 PUSH2 0x15A JUMP JUMPDEST PUSH1 0x40 MLOAD PUSH2 0xB5 SWAP2 SWAP1 PUSH2 0x308 JUMP JUMPDEST PUSH1 0x40 MLOAD DUP1 SWAP2 SUB SWAP1 RETURN JUMPDEST PUSH2 0xC6 PUSH2 0x168 JUMP JUMPDEST PUSH1 0x40 MLOAD PUSH2 0xD3 SWAP2 SWAP1 PUSH2 0x2B0 JUMP JUMPDEST PUSH1 0x40 MLOAD DUP1 SWAP2 SUB SWAP1 RETURN JUMPDEST PUSH2 0xE4 PUSH2 0x18E JUMP JUMPDEST PUSH1 0x40 MLOAD PUSH2 0xF1 SWAP2 SWAP1 PUSH2 0x2CB JUMP JUMPDEST PUSH1 0x40 MLOAD DUP1 SWAP2 SUB SWAP1 RETURN JUMPDEST PUSH2 0x102 PUSH2 0x194 JUMP JUMPDEST PUSH1 0x40 MLOAD PUSH2 0x10F SWAP2 SWAP1 PUSH2 0x2E6 JUMP JUMPDEST PUSH1 0x40 MLOAD DUP1 SWAP2 SUB SWAP1 RETURN JUMPDEST PUSH2 0x120 PUSH2 0x222 JUMP JUMPDEST PUSH1 0x40 MLOAD PUSH2 0x12D SWAP2 SWAP1 PUSH2 0x308 JUMP JUMPDEST PUSH1 0x40 MLOAD DUP1 SWAP2 SUB SWAP1 RETURN JUMPDEST PUSH2 0x13E PUSH2 0x228 JUMP JUMPDEST PUSH1 0x40 MLOAD PUSH2 0x14B SWAP2 SWAP1 PUSH2 0x323 JUMP JUMPDEST PUSH1 0x40 MLOAD DUP1 SWAP2 SUB SWAP1 RETURN JUMPDEST PUSH1 0x0 SLOAD DUP2 JUMP JUMPDEST PUSH1 0x0 DUP1 PUSH1 0x1 SWAP1 POP DUP1 SWAP2 POP POP SWAP1 JUMP JUMPDEST PUSH1 0x5 PUSH1 0x0 SWAP1 SLOAD SWAP1 PUSH2 0x100 EXP SWAP1 DIV PUSH20 0xFFFFFFFFFFFFFFFFFFFFFFFFFFFFFFFFFFFFFFFF AND DUP2 JUMP JUMPDEST PUSH1 0x3 SLOAD DUP2 JUMP JUMPDEST PUSH1 0x4 DUP1 SLOAD PUSH2 0x1A1 SWAP1 PUSH2 0x3E0 JUMP JUMPDEST DUP1 PUSH1 0x1F ADD PUSH1 0x20 DUP1 SWAP2 DIV MUL PUSH1 0x20 ADD PUSH1 0x40 MLOAD SWAP1 DUP2 ADD PUSH1 0x40 MSTORE DUP1 SWAP3 SWAP2 SWAP1 DUP2 DUP2 MSTORE PUSH1 0x20 ADD DUP3 DUP1 SLOAD PUSH2 0x1CD SWAP1 PUSH2 0x3E0 JUMP JUMPDEST DUP1 ISZERO PUSH2 0x21A JUMPI DUP1 PUSH1 0x1F LT PUSH2 0x1EF JUMPI PUSH2 0x100 DUP1 DUP4 SLOAD DIV MUL DUP4 MSTORE SWAP2 PUSH1 0x20 ADD SWAP2 PUSH2 0x21A JUMP JUMPDEST DUP3 ADD SWAP2 SWAP1 PUSH1 0x0 MSTORE PUSH1 0x20 PUSH1 0x0 KECCAK256 SWAP1 JUMPDEST DUP2 SLOAD DUP2 MSTORE SWAP1 PUSH1 0x1 ADD SWAP1 PUSH1 0x20 ADD DUP1 DUP4 GT PUSH2 0x1FD JUMPI DUP3 SWAP1 SUB PUSH1 0x1F AND DUP3 ADD SWAP2 JUMPDEST POP POP POP POP POP DUP2 JUMP JUMPDEST PUSH1 0x1 SLOAD DUP2 JUMP JUMPDEST PUSH1 0x2 PUSH1 0x0 SWAP1 SLOAD SWAP1 PUSH2 0x100 EXP SWAP1 DIV PUSH1 0xFF AND DUP2 JUMP JUMPDEST PUSH2 0x244 DUP2 PUSH2 0x35A JUMP JUMPDEST DUP3 MSTORE POP POP JUMP JUMPDEST PUSH2 0x253 DUP2 PUSH2 0x36C JUMP JUMPDEST DUP3 MSTORE POP POP JUMP JUMPDEST PUSH1 0x0 PUSH2 0x264 DUP3 PUSH2 0x33E JUMP JUMPDEST PUSH2 0x26E DUP2 DUP6 PUSH2 0x349 JUMP JUMPDEST SWAP4 POP PUSH2 0x27E DUP2 DUP6 PUSH1 0x20 DUP7 ADD PUSH2 0x3AD JUMP JUMPDEST PUSH2 0x287 DUP2 PUSH2 0x441 JUMP JUMPDEST DUP5 ADD SWAP2 POP POP SWAP3 SWAP2 POP POP JUMP JUMPDEST PUSH2 0x29B DUP2 PUSH2 0x396 JUMP JUMPDEST DUP3 MSTORE POP POP JUMP JUMPDEST PUSH2 0x2AA DUP2 PUSH2 0x3A0 JUMP JUMPDEST DUP3 MSTORE POP POP JUMP JUMPDEST PUSH1 0x0 PUSH1 0x20 DUP3 ADD SWAP1 POP PUSH2 0x2C5 PUSH1 0x0 DUP4 ADD DUP5 PUSH2 0x23B JUMP JUMPDEST SWAP3 SWAP2 POP POP JUMP JUMPDEST PUSH1 0x0 PUSH1 0x20 DUP3 ADD SWAP1 POP PUSH2 0x2E0 PUSH1 0x0 DUP4 ADD DUP5 PUSH2 0x24A JUMP JUMPDEST SWAP3 SWAP2 POP POP JUMP JUMPDEST PUSH1 0x0 PUSH1 0x20 DUP3 ADD SWAP1 POP DUP2 DUP2 SUB PUSH1 0x0 DUP4 ADD MSTORE PUSH2 0x300 DUP2 DUP5 PUSH2 0x259 JUMP JUMPDEST SWAP1 POP SWAP3 SWAP2 POP POP JUMP JUMPDEST PUSH1 0x0 PUSH1 0x20 DUP3 ADD SWAP1 POP PUSH2 0x31D PUSH1 0x0 DUP4 ADD DUP5 PUSH2 0x292 JUMP JUMPDEST SWAP3 SWAP2 POP POP JUMP JUMPDEST PUSH1 0x0 PUSH1 0x20 DUP3 ADD SWAP1 POP PUSH2 0x338 PUSH1 0x0 DUP4 ADD DUP5 PUSH2 0x2A1 JUMP JUMPDEST SWAP3 SWAP2 POP POP JUMP JUMPDEST PUSH1 0x0 DUP2 MLOAD SWAP1 POP SWAP2 SWAP1 POP JUMP JUMPDEST PUSH1 0x0 DUP3 DUP3 MSTORE PUSH1 0x20 DUP3 ADD SWAP1 POP SWAP3 SWAP2 POP POP JUMP JUMPDEST PUSH1 0x0 PUSH2 0x365 DUP3 PUSH2 0x376 JUMP JUMPDEST SWAP1 POP SWAP2 SWAP1 POP JUMP JUMPDEST PUSH1 0x0 DUP2 SWAP1 POP SWAP2 SWAP1 POP JUMP JUMPDEST PUSH1 0x0 PUSH20 0xFFFFFFFFFFFFFFFFFFFFFFFFFFFFFFFFFFFFFFFF DUP3 AND SWAP1 POP SWAP2 SWAP1 POP JUMP JUMPDEST PUSH1 0x0 DUP2 SWAP1 POP SWAP2 SWAP1 POP JUMP JUMPDEST PUSH1 0x0 PUSH1 0xFF DUP3 AND SWAP1 POP SWAP2 SWAP1 POP JUMP JUMPDEST PUSH1 0x0 JUMPDEST DUP4 DUP2 LT ISZERO PUSH2 0x3CB JUMPI DUP1 DUP3 ADD MLOAD DUP2 DUP5 ADD MSTORE PUSH1 0x20 DUP2 ADD SWAP1 POP PUSH2 0x3B0 JUMP JUMPDEST DUP4 DUP2 GT ISZERO PUSH2 0x3DA JUMPI PUSH1 0x0 DUP5 DUP5 ADD MSTORE JUMPDEST POP POP POP POP JUMP JUMPDEST PUSH1 0x0 PUSH1 0x2 DUP3 DIV SWAP1 POP PUSH1 0x1 DUP3 AND DUP1 PUSH2 0x3F8 JUMPI PUSH1 0x7F DUP3 AND SWAP2 POP JUMPDEST PUSH1 0x20 DUP3 LT DUP2 EQ ISZERO PUSH2 0x40C JUMPI PUSH2 0x40B PUSH2 0x412 JUMP JUMPDEST JUMPDEST POP SWAP2 SWAP1 POP JUMP JUMPDEST PUSH32 0x4E487B7100000000000000000000000000000000000000000000000000000000 PUSH1 0x0 MSTORE PUSH1 0x22 PUSH1 0x4 MSTORE PUSH1 0x24 PUSH1 0x0 REVERT JUMPDEST PUSH1 0x0 PUSH1 0x1F NOT PUSH1 0x1F DUP4 ADD AND SWAP1 POP SWAP2 SWAP1 POP JUMP INVALID LOG2 PUSH5 0x6970667358 0x22 SLT KECCAK256 0xC8 BLOCKHASH COINBASE 0x5E 0xD7 EXTCODEHASH PUSH12 0xAF544E5F34103739D7A6CF14 SLT 0xE6 0x25 ISZERO SWAP16 PUSH3 0x95B32 0x1E SLT 0xE1 PUSH3 0x64736F PUSH13 0x63430008000033000000000000 "
				},
				"gasEstimates": {
					"creation": {
						"codeDepositCost": "232000",
						"executionCost": "infinite",
						"totalCost": "infinite"
					},
					"external": {
						"getValue()": "373",
						"myAddress()": "1259",
						"myInt()": "1129",
						"myString()": "infinite",
						"myUint()": "1130",
						"myUint256()": "1173",
						"myUint8()": "1237"
					}
				},
				"methodIdentifiers": {
					"getValue()": "20965255",
					"myAddress()": "26b85ee1",
					"myInt()": "2cb777a6",
					"myString()": "492bfa18",
					"myUint()": "06540f7e",
					"myUint256()": "a7dbce1c",
					"myUint8()": "e2a4b2af"
				}
			},
			"storageLayout": {
				"storage": [
					{
						"astId": 4,
						"contract": "Udemy_Contracts/Types.sol:TypesContract",
						"label": "myUint",
						"offset": 0,
						"slot": "0",
						"type": "t_uint256"
					},
					{
						"astId": 7,
						"contract": "Udemy_Contracts/Types.sol:TypesContract",
						"label": "myUint256",
						"offset": 0,
						"slot": "1",
						"type": "t_uint256"
					},
					{
						"astId": 10,
						"contract": "Udemy_Contracts/Types.sol:TypesContract",
						"label": "myUint8",
						"offset": 0,
						"slot": "2",
						"type": "t_uint8"
					},
					{
						"astId": 14,
						"contract": "Udemy_Contracts/Types.sol:TypesContract",
						"label": "myInt",
						"offset": 0,
						"slot": "3",
						"type": "t_int256"
					},
					{
						"astId": 17,
						"contract": "Udemy_Contracts/Types.sol:TypesContract",
						"label": "myString",
						"offset": 0,
						"slot": "4",
						"type": "t_string_storage"
					},
					{
						"astId": 20,
						"contract": "Udemy_Contracts/Types.sol:TypesContract",
						"label": "myAddress",
						"offset": 0,
						"slot": "5",
						"type": "t_address"
					}
				],
				"types": {
					"t_address": {
						"encoding": "inplace",
						"label": "address",
						"numberOfBytes": "20"
					},
					"t_int256": {
						"encoding": "inplace",
						"label": "int256",
						"numberOfBytes": "32"
					},
					"t_string_storage": {
						"encoding": "bytes",
						"label": "string",
						"numberOfBytes": "32"
					},
					"t_uint256": {
						"encoding": "inplace",
						"label": "uint256",
						"numberOfBytes": "32"
					},
					"t_uint8": {
						"encoding": "inplace",
						"label": "uint8",
						"numberOfBytes": "1"
					}
				}
			},
			"userdoc": {
				"kind": "user",
				"methods": {},
				"version": 1
			}
		}
	}
}