{
	"Udemy_Contracts/Types.sol": {
		"TypesContract": {
			"abi": [
				{
					"inputs": [],
					"name": "getValue",
					"outputs": [
						{
							"internalType": "uint256",
							"name": "",
							"type": "uint256"
						}
					],
					"stateMutability": "pure",
					"type": "function"
				},
				{
					"inputs": [],
					"name": "myInt",
					"outputs": [
						{
							"internalType": "int256",
							"name": "",
							"type": "int256"
						}
					],
					"stateMutability": "view",
					"type": "function"
				},
				{
					"inputs": [],
					"name": "myUint",
					"outputs": [
						{
							"internalType": "uint256",
							"name": "",
							"type": "uint256"
						}
					],
					"stateMutability": "view",
					"type": "function"
				},
				{
					"inputs": [],
					"name": "myUint256",
					"outputs": [
						{
							"internalType": "uint256",
							"name": "",
							"type": "uint256"
						}
					],
					"stateMutability": "view",
					"type": "function"
				},
				{
					"inputs": [],
					"name": "myUint8",
					"outputs": [
						{
							"internalType": "uint8",
							"name": "",
							"type": "uint8"
						}
					],
					"stateMutability": "view",
					"type": "function"
				}
			],
			"devdoc": {
				"kind": "dev",
				"methods": {},
				"version": 1
			},
			"evm": {
				"assembly": "    /* \"Udemy_Contracts/Types.sol\":56:375  contract TypesContract{... */\n  mstore(0x40, 0x80)\n    /* \"Udemy_Contracts/Types.sol\":131:132  2 */\n  0x02\n    /* \"Udemy_Contracts/Types.sol\":109:132  uint  public myUint = 2 */\n  0x00\n  sstore\n    /* \"Udemy_Contracts/Types.sol\":179:180  1 */\n  0x01\n    /* \"Udemy_Contracts/Types.sol\":152:180  uint256 public myUint256 = 1 */\n  dup1\n  sstore\n    /* \"Udemy_Contracts/Types.sol\":209:210  1 */\n  0x01\n    /* \"Udemy_Contracts/Types.sol\":186:210  uint8 public myUint8 = 1 */\n  0x02\n  exp(0x0100, 0x00)\n  dup2\n  sload\n  dup2\n  0xff\n  mul\n  not\n  and\n  swap1\n  dup4\n  0xff\n  and\n  mul\n  or\n  swap1\n  sstore\n  pop\n    /* \"Udemy_Contracts/Types.sol\":235:237  -1 */\n  0xffffffffffffffffffffffffffffffffffffffffffffffffffffffffffffffff\n    /* \"Udemy_Contracts/Types.sol\":216:237  int public myInt = -1 */\n  0x03\n  sstore\n    /* \"Udemy_Contracts/Types.sol\":56:375  contract TypesContract{... */\n  callvalue\n  dup1\n  iszero\n  tag_1\n  jumpi\n  0x00\n  dup1\n  revert\ntag_1:\n  pop\n  dataSize(sub_0)\n  dup1\n  dataOffset(sub_0)\n  0x00\n  codecopy\n  0x00\n  return\nstop\n\nsub_0: assembly {\n        /* \"Udemy_Contracts/Types.sol\":56:375  contract TypesContract{... */\n      mstore(0x40, 0x80)\n      callvalue\n      dup1\n      iszero\n      tag_1\n      jumpi\n      0x00\n      dup1\n      revert\n    tag_1:\n      pop\n      jumpi(tag_2, lt(calldatasize, 0x04))\n      shr(0xe0, calldataload(0x00))\n      dup1\n      0x06540f7e\n      eq\n      tag_3\n      jumpi\n      dup1\n      0x20965255\n      eq\n      tag_4\n      jumpi\n      dup1\n      0x2cb777a6\n      eq\n      tag_5\n      jumpi\n      dup1\n      0xa7dbce1c\n      eq\n      tag_6\n      jumpi\n      dup1\n      0xe2a4b2af\n      eq\n      tag_7\n      jumpi\n    tag_2:\n      0x00\n      dup1\n      revert\n        /* \"Udemy_Contracts/Types.sol\":109:132  uint  public myUint = 2 */\n    tag_3:\n      tag_8\n      tag_9\n      jump\t// in\n    tag_8:\n      mload(0x40)\n      tag_10\n      swap2\n      swap1\n      tag_11\n      jump\t// in\n    tag_10:\n      mload(0x40)\n      dup1\n      swap2\n      sub\n      swap1\n      return\n        /* \"Udemy_Contracts/Types.sol\":275:373  function getValue() public pure returns(uint){... */\n    tag_4:\n      tag_12\n      tag_13\n      jump\t// in\n    tag_12:\n      mload(0x40)\n      tag_14\n      swap2\n      swap1\n      tag_11\n      jump\t// in\n    tag_14:\n      mload(0x40)\n      dup1\n      swap2\n      sub\n      swap1\n      return\n        /* \"Udemy_Contracts/Types.sol\":216:237  int public myInt = -1 */\n    tag_5:\n      tag_15\n      tag_16\n      jump\t// in\n    tag_15:\n      mload(0x40)\n      tag_17\n      swap2\n      swap1\n      tag_18\n      jump\t// in\n    tag_17:\n      mload(0x40)\n      dup1\n      swap2\n      sub\n      swap1\n      return\n        /* \"Udemy_Contracts/Types.sol\":152:180  uint256 public myUint256 = 1 */\n    tag_6:\n      tag_19\n      tag_20\n      jump\t// in\n    tag_19:\n      mload(0x40)\n      tag_21\n      swap2\n      swap1\n      tag_11\n      jump\t// in\n    tag_21:\n      mload(0x40)\n      dup1\n      swap2\n      sub\n      swap1\n      return\n        /* \"Udemy_Contracts/Types.sol\":186:210  uint8 public myUint8 = 1 */\n    tag_7:\n      tag_22\n      tag_23\n      jump\t// in\n    tag_22:\n      mload(0x40)\n      tag_24\n      swap2\n      swap1\n      tag_25\n      jump\t// in\n    tag_24:\n      mload(0x40)\n      dup1\n      swap2\n      sub\n      swap1\n      return\n        /* \"Udemy_Contracts/Types.sol\":109:132  uint  public myUint = 2 */\n    tag_9:\n      sload(0x00)\n      dup2\n      jump\t// out\n        /* \"Udemy_Contracts/Types.sol\":275:373  function getValue() public pure returns(uint){... */\n    tag_13:\n        /* \"Udemy_Contracts/Types.sol\":315:319  uint */\n      0x00\n        /* \"Udemy_Contracts/Types.sol\":330:340  uint value */\n      dup1\n        /* \"Udemy_Contracts/Types.sol\":343:344  1 */\n      0x01\n        /* \"Udemy_Contracts/Types.sol\":330:344  uint value = 1 */\n      swap1\n      pop\n        /* \"Udemy_Contracts/Types.sol\":361:366  value */\n      dup1\n        /* \"Udemy_Contracts/Types.sol\":354:366  return value */\n      swap2\n      pop\n      pop\n        /* \"Udemy_Contracts/Types.sol\":275:373  function getValue() public pure returns(uint){... */\n      swap1\n      jump\t// out\n        /* \"Udemy_Contracts/Types.sol\":216:237  int public myInt = -1 */\n    tag_16:\n      sload(0x03)\n      dup2\n      jump\t// out\n        /* \"Udemy_Contracts/Types.sol\":152:180  uint256 public myUint256 = 1 */\n    tag_20:\n      sload(0x01)\n      dup2\n      jump\t// out\n        /* \"Udemy_Contracts/Types.sol\":186:210  uint8 public myUint8 = 1 */\n    tag_23:\n      0x02\n      0x00\n      swap1\n      sload\n      swap1\n      0x0100\n      exp\n      swap1\n      div\n      0xff\n      and\n      dup2\n      jump\t// out\n        /* \"#utility.yul\":7:122   */\n    tag_28:\n        /* \"#utility.yul\":92:115   */\n      tag_30\n        /* \"#utility.yul\":109:114   */\n      dup2\n        /* \"#utility.yul\":92:115   */\n      tag_31\n      jump\t// in\n    tag_30:\n        /* \"#utility.yul\":87:90   */\n      dup3\n        /* \"#utility.yul\":80:116   */\n      mstore\n        /* \"#utility.yul\":70:122   */\n      pop\n      pop\n      jump\t// out\n        /* \"#utility.yul\":128:246   */\n    tag_32:\n        /* \"#utility.yul\":215:239   */\n      tag_34\n        /* \"#utility.yul\":233:238   */\n      dup2\n        /* \"#utility.yul\":215:239   */\n      tag_35\n      jump\t// in\n    tag_34:\n        /* \"#utility.yul\":210:213   */\n      dup3\n        /* \"#utility.yul\":203:240   */\n      mstore\n        /* \"#utility.yul\":193:246   */\n      pop\n      pop\n      jump\t// out\n        /* \"#utility.yul\":252:364   */\n    tag_36:\n        /* \"#utility.yul\":335:357   */\n      tag_38\n        /* \"#utility.yul\":351:356   */\n      dup2\n        /* \"#utility.yul\":335:357   */\n      tag_39\n      jump\t// in\n    tag_38:\n        /* \"#utility.yul\":330:333   */\n      dup3\n        /* \"#utility.yul\":323:358   */\n      mstore\n        /* \"#utility.yul\":313:364   */\n      pop\n      pop\n      jump\t// out\n        /* \"#utility.yul\":370:588   */\n    tag_18:\n      0x00\n        /* \"#utility.yul\":499:501   */\n      0x20\n        /* \"#utility.yul\":488:497   */\n      dup3\n        /* \"#utility.yul\":484:502   */\n      add\n        /* \"#utility.yul\":476:502   */\n      swap1\n      pop\n        /* \"#utility.yul\":512:581   */\n      tag_41\n        /* \"#utility.yul\":578:579   */\n      0x00\n        /* \"#utility.yul\":567:576   */\n      dup4\n        /* \"#utility.yul\":563:580   */\n      add\n        /* \"#utility.yul\":554:560   */\n      dup5\n        /* \"#utility.yul\":512:581   */\n      tag_28\n      jump\t// in\n    tag_41:\n        /* \"#utility.yul\":466:588   */\n      swap3\n      swap2\n      pop\n      pop\n      jump\t// out\n        /* \"#utility.yul\":594:816   */\n    tag_11:\n      0x00\n        /* \"#utility.yul\":725:727   */\n      0x20\n        /* \"#utility.yul\":714:723   */\n      dup3\n        /* \"#utility.yul\":710:728   */\n      add\n        /* \"#utility.yul\":702:728   */\n      swap1\n      pop\n        /* \"#utility.yul\":738:809   */\n      tag_43\n        /* \"#utility.yul\":806:807   */\n      0x00\n        /* \"#utility.yul\":795:804   */\n      dup4\n        /* \"#utility.yul\":791:808   */\n      add\n        /* \"#utility.yul\":782:788   */\n      dup5\n        /* \"#utility.yul\":738:809   */\n      tag_32\n      jump\t// in\n    tag_43:\n        /* \"#utility.yul\":692:816   */\n      swap3\n      swap2\n      pop\n      pop\n      jump\t// out\n        /* \"#utility.yul\":822:1036   */\n    tag_25:\n      0x00\n        /* \"#utility.yul\":949:951   */\n      0x20\n        /* \"#utility.yul\":938:947   */\n      dup3\n        /* \"#utility.yul\":934:952   */\n      add\n        /* \"#utility.yul\":926:952   */\n      swap1\n      pop\n        /* \"#utility.yul\":962:1029   */\n      tag_45\n        /* \"#utility.yul\":1026:1027   */\n      0x00\n        /* \"#utility.yul\":1015:1024   */\n      dup4\n        /* \"#utility.yul\":1011:1028   */\n      add\n        /* \"#utility.yul\":1002:1008   */\n      dup5\n        /* \"#utility.yul\":962:1029   */\n      tag_36\n      jump\t// in\n    tag_45:\n        /* \"#utility.yul\":916:1036   */\n      swap3\n      swap2\n      pop\n      pop\n      jump\t// out\n        /* \"#utility.yul\":1042:1118   */\n    tag_31:\n      0x00\n        /* \"#utility.yul\":1107:1112   */\n      dup2\n        /* \"#utility.yul\":1096:1112   */\n      swap1\n      pop\n        /* \"#utility.yul\":1086:1118   */\n      swap2\n      swap1\n      pop\n      jump\t// out\n        /* \"#utility.yul\":1124:1201   */\n    tag_35:\n      0x00\n        /* \"#utility.yul\":1190:1195   */\n      dup2\n        /* \"#utility.yul\":1179:1195   */\n      swap1\n      pop\n        /* \"#utility.yul\":1169:1201   */\n      swap2\n      swap1\n      pop\n      jump\t// out\n        /* \"#utility.yul\":1207:1293   */\n    tag_39:\n      0x00\n        /* \"#utility.yul\":1282:1286   */\n      0xff\n        /* \"#utility.yul\":1275:1280   */\n      dup3\n        /* \"#utility.yul\":1271:1287   */\n      and\n        /* \"#utility.yul\":1260:1287   */\n      swap1\n      pop\n        /* \"#utility.yul\":1250:1293   */\n      swap2\n      swap1\n      pop\n      jump\t// out\n\n    auxdata: 0xa2646970667358221220e2a8adfbdccc11ae717e01a30901de8ed4cbfde69758517ad1d4709448df79f564736f6c63430008000033\n}\n",
				"bytecode": {
					"linkReferences": {},
					"object": "60806040526002600055600180556001600260006101000a81548160ff021916908360ff1602179055507fffffffffffffffffffffffffffffffffffffffffffffffffffffffffffffffff60035534801561005957600080fd5b506101fa806100696000396000f3fe608060405234801561001057600080fd5b50600436106100575760003560e01c806306540f7e1461005c578063209652551461007a5780632cb777a614610098578063a7dbce1c146100b6578063e2a4b2af146100d4575b600080fd5b6100646100f2565b604051610071919061016d565b60405180910390f35b6100826100f8565b60405161008f919061016d565b60405180910390f35b6100a0610106565b6040516100ad9190610152565b60405180910390f35b6100be61010c565b6040516100cb919061016d565b60405180910390f35b6100dc610112565b6040516100e99190610188565b60405180910390f35b60005481565b600080600190508091505090565b60035481565b60015481565b600260009054906101000a900460ff1681565b61012e816101a3565b82525050565b61013d816101ad565b82525050565b61014c816101b7565b82525050565b60006020820190506101676000830184610125565b92915050565b60006020820190506101826000830184610134565b92915050565b600060208201905061019d6000830184610143565b92915050565b6000819050919050565b6000819050919050565b600060ff8216905091905056fea2646970667358221220e2a8adfbdccc11ae717e01a30901de8ed4cbfde69758517ad1d4709448df79f564736f6c63430008000033",
					"opcodes": "PUSH1 0x80 PUSH1 0x40 MSTORE PUSH1 0x2 PUSH1 0x0 SSTORE PUSH1 0x1 DUP1 SSTORE PUSH1 0x1 PUSH1 0x2 PUSH1 0x0 PUSH2 0x100 EXP DUP2 SLOAD DUP2 PUSH1 0xFF MUL NOT AND SWAP1 DUP4 PUSH1 0xFF AND MUL OR SWAP1 SSTORE POP PUSH32 0xFFFFFFFFFFFFFFFFFFFFFFFFFFFFFFFFFFFFFFFFFFFFFFFFFFFFFFFFFFFFFFFF PUSH1 0x3 SSTORE CALLVALUE DUP1 ISZERO PUSH2 0x59 JUMPI PUSH1 0x0 DUP1 REVERT JUMPDEST POP PUSH2 0x1FA DUP1 PUSH2 0x69 PUSH1 0x0 CODECOPY PUSH1 0x0 RETURN INVALID PUSH1 0x80 PUSH1 0x40 MSTORE CALLVALUE DUP1 ISZERO PUSH2 0x10 JUMPI PUSH1 0x0 DUP1 REVERT JUMPDEST POP PUSH1 0x4 CALLDATASIZE LT PUSH2 0x57 JUMPI PUSH1 0x0 CALLDATALOAD PUSH1 0xE0 SHR DUP1 PUSH4 0x6540F7E EQ PUSH2 0x5C JUMPI DUP1 PUSH4 0x20965255 EQ PUSH2 0x7A JUMPI DUP1 PUSH4 0x2CB777A6 EQ PUSH2 0x98 JUMPI DUP1 PUSH4 0xA7DBCE1C EQ PUSH2 0xB6 JUMPI DUP1 PUSH4 0xE2A4B2AF EQ PUSH2 0xD4 JUMPI JUMPDEST PUSH1 0x0 DUP1 REVERT JUMPDEST PUSH2 0x64 PUSH2 0xF2 JUMP JUMPDEST PUSH1 0x40 MLOAD PUSH2 0x71 SWAP2 SWAP1 PUSH2 0x16D JUMP JUMPDEST PUSH1 0x40 MLOAD DUP1 SWAP2 SUB SWAP1 RETURN JUMPDEST PUSH2 0x82 PUSH2 0xF8 JUMP JUMPDEST PUSH1 0x40 MLOAD PUSH2 0x8F SWAP2 SWAP1 PUSH2 0x16D JUMP JUMPDEST PUSH1 0x40 MLOAD DUP1 SWAP2 SUB SWAP1 RETURN JUMPDEST PUSH2 0xA0 PUSH2 0x106 JUMP JUMPDEST PUSH1 0x40 MLOAD PUSH2 0xAD SWAP2 SWAP1 PUSH2 0x152 JUMP JUMPDEST PUSH1 0x40 MLOAD DUP1 SWAP2 SUB SWAP1 RETURN JUMPDEST PUSH2 0xBE PUSH2 0x10C JUMP JUMPDEST PUSH1 0x40 MLOAD PUSH2 0xCB SWAP2 SWAP1 PUSH2 0x16D JUMP JUMPDEST PUSH1 0x40 MLOAD DUP1 SWAP2 SUB SWAP1 RETURN JUMPDEST PUSH2 0xDC PUSH2 0x112 JUMP JUMPDEST PUSH1 0x40 MLOAD PUSH2 0xE9 SWAP2 SWAP1 PUSH2 0x188 JUMP JUMPDEST PUSH1 0x40 MLOAD DUP1 SWAP2 SUB SWAP1 RETURN JUMPDEST PUSH1 0x0 SLOAD DUP2 JUMP JUMPDEST PUSH1 0x0 DUP1 PUSH1 0x1 SWAP1 POP DUP1 SWAP2 POP POP SWAP1 JUMP JUMPDEST PUSH1 0x3 SLOAD DUP2 JUMP JUMPDEST PUSH1 0x1 SLOAD DUP2 JUMP JUMPDEST PUSH1 0x2 PUSH1 0x0 SWAP1 SLOAD SWAP1 PUSH2 0x100 EXP SWAP1 DIV PUSH1 0xFF AND DUP2 JUMP JUMPDEST PUSH2 0x12E DUP2 PUSH2 0x1A3 JUMP JUMPDEST DUP3 MSTORE POP POP JUMP JUMPDEST PUSH2 0x13D DUP2 PUSH2 0x1AD JUMP JUMPDEST DUP3 MSTORE POP POP JUMP JUMPDEST PUSH2 0x14C DUP2 PUSH2 0x1B7 JUMP JUMPDEST DUP3 MSTORE POP POP JUMP JUMPDEST PUSH1 0x0 PUSH1 0x20 DUP3 ADD SWAP1 POP PUSH2 0x167 PUSH1 0x0 DUP4 ADD DUP5 PUSH2 0x125 JUMP JUMPDEST SWAP3 SWAP2 POP POP JUMP JUMPDEST PUSH1 0x0 PUSH1 0x20 DUP3 ADD SWAP1 POP PUSH2 0x182 PUSH1 0x0 DUP4 ADD DUP5 PUSH2 0x134 JUMP JUMPDEST SWAP3 SWAP2 POP POP JUMP JUMPDEST PUSH1 0x0 PUSH1 0x20 DUP3 ADD SWAP1 POP PUSH2 0x19D PUSH1 0x0 DUP4 ADD DUP5 PUSH2 0x143 JUMP JUMPDEST SWAP3 SWAP2 POP POP JUMP JUMPDEST PUSH1 0x0 DUP2 SWAP1 POP SWAP2 SWAP1 POP JUMP JUMPDEST PUSH1 0x0 DUP2 SWAP1 POP SWAP2 SWAP1 POP JUMP JUMPDEST PUSH1 0x0 PUSH1 0xFF DUP3 AND SWAP1 POP SWAP2 SWAP1 POP JUMP INVALID LOG2 PUSH5 0x6970667358 0x22 SLT KECCAK256 0xE2 0xA8 0xAD 0xFB 0xDC 0xCC GT 0xAE PUSH18 0x7E01A30901DE8ED4CBFDE69758517AD1D470 SWAP5 0x48 0xDF PUSH26 0xF564736F6C634300080000330000000000000000000000000000 "
				},
				"gasEstimates": {
					"creation": {
						"codeDepositCost": "101200",
						"executionCost": "81032",
						"totalCost": "182232"
					},
					"external": {
						"getValue()": "350",
						"myInt()": "1151",
						"myUint()": "1107",
						"myUint256()": "1173",
						"myUint8()": "1237"
					}
				},
				"methodIdentifiers": {
					"getValue()": "20965255",
					"myInt()": "2cb777a6",
					"myUint()": "06540f7e",
					"myUint256()": "a7dbce1c",
					"myUint8()": "e2a4b2af"
				}
			},
			"storageLayout": {
				"storage": [
					{
						"astId": 4,
						"contract": "Udemy_Contracts/Types.sol:TypesContract",
						"label": "myUint",
						"offset": 0,
						"slot": "0",
						"type": "t_uint256"
					},
					{
						"astId": 7,
						"contract": "Udemy_Contracts/Types.sol:TypesContract",
						"label": "myUint256",
						"offset": 0,
						"slot": "1",
						"type": "t_uint256"
					},
					{
						"astId": 10,
						"contract": "Udemy_Contracts/Types.sol:TypesContract",
						"label": "myUint8",
						"offset": 0,
						"slot": "2",
						"type": "t_uint8"
					},
					{
						"astId": 14,
						"contract": "Udemy_Contracts/Types.sol:TypesContract",
						"label": "myInt",
						"offset": 0,
						"slot": "3",
						"type": "t_int256"
					}
				],
				"types": {
					"t_int256": {
						"encoding": "inplace",
						"label": "int256",
						"numberOfBytes": "32"
					},
					"t_uint256": {
						"encoding": "inplace",
						"label": "uint256",
						"numberOfBytes": "32"
					},
					"t_uint8": {
						"encoding": "inplace",
						"label": "uint8",
						"numberOfBytes": "1"
					}
				}
			},
			"userdoc": {
				"kind": "user",
				"methods": {},
				"version": 1
			}
		}
	}
}