{
	"Udemy_Contracts/Types.sol": {
		"TypesContract": {
			"abi": [
				{
					"inputs": [],
					"name": "getValue",
					"outputs": [
						{
							"internalType": "uint256",
							"name": "",
							"type": "uint256"
						}
					],
					"stateMutability": "pure",
					"type": "function"
				},
				{
					"inputs": [],
					"name": "myAddress",
					"outputs": [
						{
							"internalType": "address",
							"name": "",
							"type": "address"
						}
					],
					"stateMutability": "view",
					"type": "function"
				},
				{
					"inputs": [],
					"name": "myInt",
					"outputs": [
						{
							"internalType": "int256",
							"name": "",
							"type": "int256"
						}
					],
					"stateMutability": "view",
					"type": "function"
				},
				{
					"inputs": [],
					"name": "myString",
					"outputs": [
						{
							"internalType": "string",
							"name": "",
							"type": "string"
						}
					],
					"stateMutability": "view",
					"type": "function"
				},
				{
					"inputs": [],
					"name": "myStruct",
					"outputs": [
						{
							"internalType": "string",
							"name": "name",
							"type": "string"
						},
						{
							"internalType": "uint256",
							"name": "age",
							"type": "uint256"
						}
					],
					"stateMutability": "view",
					"type": "function"
				},
				{
					"inputs": [],
					"name": "myUint",
					"outputs": [
						{
							"internalType": "uint256",
							"name": "",
							"type": "uint256"
						}
					],
					"stateMutability": "view",
					"type": "function"
				},
				{
					"inputs": [],
					"name": "myUint256",
					"outputs": [
						{
							"internalType": "uint256",
							"name": "",
							"type": "uint256"
						}
					],
					"stateMutability": "view",
					"type": "function"
				},
				{
					"inputs": [],
					"name": "myUint8",
					"outputs": [
						{
							"internalType": "uint8",
							"name": "",
							"type": "uint8"
						}
					],
					"stateMutability": "view",
					"type": "function"
				}
			],
			"devdoc": {
				"kind": "dev",
				"methods": {},
				"version": 1
			},
			"evm": {
				"assembly": "    /* \"Udemy_Contracts/Types.sol\":56:625  contract TypesContract{... */\n  mstore(0x40, 0x80)\n    /* \"Udemy_Contracts/Types.sol\":131:132  2 */\n  0x02\n    /* \"Udemy_Contracts/Types.sol\":109:132  uint  public myUint = 2 */\n  0x00\n  sstore\n    /* \"Udemy_Contracts/Types.sol\":179:180  1 */\n  0x01\n    /* \"Udemy_Contracts/Types.sol\":152:180  uint256 public myUint256 = 1 */\n  dup1\n  sstore\n    /* \"Udemy_Contracts/Types.sol\":209:210  1 */\n  0x01\n    /* \"Udemy_Contracts/Types.sol\":186:210  uint8 public myUint8 = 1 */\n  0x02\n  exp(0x0100, 0x00)\n  dup2\n  sload\n  dup2\n  0xff\n  mul\n  not\n  and\n  swap1\n  dup4\n  0xff\n  and\n  mul\n  or\n  swap1\n  sstore\n  pop\n    /* \"Udemy_Contracts/Types.sol\":235:237  -1 */\n  0xffffffffffffffffffffffffffffffffffffffffffffffffffffffffffffffff\n    /* \"Udemy_Contracts/Types.sol\":216:237  int public myInt = -1 */\n  0x03\n  sstore\n    /* \"Udemy_Contracts/Types.sol\":244:283  string public myString = \"Hello Web3.0\" */\n  mload(0x40)\n  dup1\n  0x40\n  add\n  0x40\n  mstore\n  dup1\n  0x0c\n  dup2\n  mstore\n  0x20\n  add\n  0x48656c6c6f20576562332e300000000000000000000000000000000000000000\n  dup2\n  mstore\n  pop\n  0x04\n  swap1\n  dup1\n  mload\n  swap1\n  0x20\n  add\n  swap1\n  tag_1\n  swap3\n  swap2\n  swap1\n  tag_2\n  jump\t// in\ntag_1:\n  pop\n    /* \"Udemy_Contracts/Types.sol\":317:359  0x48FFBBc808740181080B107F6D01cF878E16585a */\n  0x48ffbbc808740181080b107f6d01cf878e16585a\n    /* \"Udemy_Contracts/Types.sol\":290:359  address public myAddress = 0x48FFBBc808740181080B107F6D01cF878E16585a */\n  0x05\n  exp(0x0100, 0x00)\n  dup2\n  sload\n  dup2\n  0xffffffffffffffffffffffffffffffffffffffff\n  mul\n  not\n  and\n  swap1\n  dup4\n  0xffffffffffffffffffffffffffffffffffffffff\n  and\n  mul\n  or\n  swap1\n  sstore\n  pop\n    /* \"Udemy_Contracts/Types.sol\":464:488  MyStruct(\"Shincode\", 24) */\n  mload(0x40)\n  dup1\n  0x40\n  add\n  0x40\n  mstore\n  dup1\n  mload(0x40)\n  dup1\n  0x40\n  add\n  0x40\n  mstore\n  dup1\n  0x08\n  dup2\n  mstore\n  0x20\n  add\n  0x5368696e636f6465000000000000000000000000000000000000000000000000\n  dup2\n  mstore\n  pop\n  dup2\n  mstore\n  0x20\n  add\n    /* \"Udemy_Contracts/Types.sol\":485:487  24 */\n  0x18\n    /* \"Udemy_Contracts/Types.sol\":464:488  MyStruct(\"Shincode\", 24) */\n  dup2\n  mstore\n  pop\n    /* \"Udemy_Contracts/Types.sol\":437:488  MyStruct public myStruct = MyStruct(\"Shincode\", 24) */\n  0x06\n  0x00\n  dup3\n  add\n  mload\n  dup2\n  0x00\n  add\n  swap1\n  dup1\n  mload\n  swap1\n  0x20\n  add\n  swap1\n  tag_3\n  swap3\n  swap2\n  swap1\n  tag_2\n  jump\t// in\ntag_3:\n  pop\n  0x20\n  dup3\n  add\n  mload\n  dup2\n  0x01\n  add\n  sstore\n  pop\n  pop\n    /* \"Udemy_Contracts/Types.sol\":56:625  contract TypesContract{... */\n  callvalue\n  dup1\n  iszero\n  tag_4\n  jumpi\n  0x00\n  dup1\n  revert\ntag_4:\n  pop\n  jump(tag_5)\ntag_2:\n  dup3\n  dup1\n  sload\n  tag_6\n  swap1\n  tag_7\n  jump\t// in\ntag_6:\n  swap1\n  0x00\n  mstore\n  keccak256(0x00, 0x20)\n  swap1\n  0x1f\n  add\n  0x20\n  swap1\n  div\n  dup2\n  add\n  swap3\n  dup3\n  tag_9\n  jumpi\n  0x00\n  dup6\n  sstore\n  jump(tag_8)\ntag_9:\n  dup3\n  0x1f\n  lt\n  tag_10\n  jumpi\n  dup1\n  mload\n  not(0xff)\n  and\n  dup4\n  dup1\n  add\n  or\n  dup6\n  sstore\n  jump(tag_8)\ntag_10:\n  dup3\n  dup1\n  add\n  0x01\n  add\n  dup6\n  sstore\n  dup3\n  iszero\n  tag_8\n  jumpi\n  swap2\n  dup3\n  add\ntag_11:\n  dup3\n  dup2\n  gt\n  iszero\n  tag_12\n  jumpi\n  dup3\n  mload\n  dup3\n  sstore\n  swap2\n  0x20\n  add\n  swap2\n  swap1\n  0x01\n  add\n  swap1\n  jump(tag_11)\ntag_12:\ntag_8:\n  pop\n  swap1\n  pop\n  tag_13\n  swap2\n  swap1\n  tag_14\n  jump\t// in\ntag_13:\n  pop\n  swap1\n  jump\t// out\ntag_14:\ntag_15:\n  dup1\n  dup3\n  gt\n  iszero\n  tag_16\n  jumpi\n  0x00\n  dup2\n  0x00\n  swap1\n  sstore\n  pop\n  0x01\n  add\n  jump(tag_15)\ntag_16:\n  pop\n  swap1\n  jump\t// out\n    /* \"#utility.yul\":7:327   */\ntag_7:\n  0x00\n    /* \"#utility.yul\":88:89   */\n  0x02\n    /* \"#utility.yul\":82:86   */\n  dup3\n    /* \"#utility.yul\":78:90   */\n  div\n    /* \"#utility.yul\":68:90   */\n  swap1\n  pop\n    /* \"#utility.yul\":135:136   */\n  0x01\n    /* \"#utility.yul\":129:133   */\n  dup3\n    /* \"#utility.yul\":125:137   */\n  and\n    /* \"#utility.yul\":156:174   */\n  dup1\n    /* \"#utility.yul\":146:148   */\n  tag_19\n  jumpi\n    /* \"#utility.yul\":212:216   */\n  0x7f\n    /* \"#utility.yul\":204:210   */\n  dup3\n    /* \"#utility.yul\":200:217   */\n  and\n    /* \"#utility.yul\":190:217   */\n  swap2\n  pop\n    /* \"#utility.yul\":146:148   */\ntag_19:\n    /* \"#utility.yul\":274:276   */\n  0x20\n    /* \"#utility.yul\":266:272   */\n  dup3\n    /* \"#utility.yul\":263:277   */\n  lt\n    /* \"#utility.yul\":243:261   */\n  dup2\n    /* \"#utility.yul\":240:278   */\n  eq\n    /* \"#utility.yul\":237:239   */\n  iszero\n  tag_20\n  jumpi\n    /* \"#utility.yul\":293:311   */\n  tag_21\n  tag_22\n  jump\t// in\ntag_21:\n    /* \"#utility.yul\":237:239   */\ntag_20:\n    /* \"#utility.yul\":58:327   */\n  pop\n  swap2\n  swap1\n  pop\n  jump\t// out\n    /* \"#utility.yul\":333:513   */\ntag_22:\n    /* \"#utility.yul\":381:458   */\n  0x4e487b7100000000000000000000000000000000000000000000000000000000\n    /* \"#utility.yul\":378:379   */\n  0x00\n    /* \"#utility.yul\":371:459   */\n  mstore\n    /* \"#utility.yul\":478:482   */\n  0x22\n    /* \"#utility.yul\":475:476   */\n  0x04\n    /* \"#utility.yul\":468:483   */\n  mstore\n    /* \"#utility.yul\":502:506   */\n  0x24\n    /* \"#utility.yul\":499:500   */\n  0x00\n    /* \"#utility.yul\":492:507   */\n  revert\n    /* \"Udemy_Contracts/Types.sol\":56:625  contract TypesContract{... */\ntag_5:\n  dataSize(sub_0)\n  dup1\n  dataOffset(sub_0)\n  0x00\n  codecopy\n  0x00\n  return\nstop\n\nsub_0: assembly {\n        /* \"Udemy_Contracts/Types.sol\":56:625  contract TypesContract{... */\n      mstore(0x40, 0x80)\n      callvalue\n      dup1\n      iszero\n      tag_1\n      jumpi\n      0x00\n      dup1\n      revert\n    tag_1:\n      pop\n      jumpi(tag_2, lt(calldatasize, 0x04))\n      shr(0xe0, calldataload(0x00))\n      dup1\n      0x492bfa18\n      gt\n      tag_11\n      jumpi\n      dup1\n      0x492bfa18\n      eq\n      tag_7\n      jumpi\n      dup1\n      0x8bc9fe6c\n      eq\n      tag_8\n      jumpi\n      dup1\n      0xa7dbce1c\n      eq\n      tag_9\n      jumpi\n      dup1\n      0xe2a4b2af\n      eq\n      tag_10\n      jumpi\n      jump(tag_2)\n    tag_11:\n      dup1\n      0x06540f7e\n      eq\n      tag_3\n      jumpi\n      dup1\n      0x20965255\n      eq\n      tag_4\n      jumpi\n      dup1\n      0x26b85ee1\n      eq\n      tag_5\n      jumpi\n      dup1\n      0x2cb777a6\n      eq\n      tag_6\n      jumpi\n    tag_2:\n      0x00\n      dup1\n      revert\n        /* \"Udemy_Contracts/Types.sol\":109:132  uint  public myUint = 2 */\n    tag_3:\n      tag_12\n      tag_13\n      jump\t// in\n    tag_12:\n      mload(0x40)\n      tag_14\n      swap2\n      swap1\n      tag_15\n      jump\t// in\n    tag_14:\n      mload(0x40)\n      dup1\n      swap2\n      sub\n      swap1\n      return\n        /* \"Udemy_Contracts/Types.sol\":525:623  function getValue() public pure returns(uint){... */\n    tag_4:\n      tag_16\n      tag_17\n      jump\t// in\n    tag_16:\n      mload(0x40)\n      tag_18\n      swap2\n      swap1\n      tag_15\n      jump\t// in\n    tag_18:\n      mload(0x40)\n      dup1\n      swap2\n      sub\n      swap1\n      return\n        /* \"Udemy_Contracts/Types.sol\":290:359  address public myAddress = 0x48FFBBc808740181080B107F6D01cF878E16585a */\n    tag_5:\n      tag_19\n      tag_20\n      jump\t// in\n    tag_19:\n      mload(0x40)\n      tag_21\n      swap2\n      swap1\n      tag_22\n      jump\t// in\n    tag_21:\n      mload(0x40)\n      dup1\n      swap2\n      sub\n      swap1\n      return\n        /* \"Udemy_Contracts/Types.sol\":216:237  int public myInt = -1 */\n    tag_6:\n      tag_23\n      tag_24\n      jump\t// in\n    tag_23:\n      mload(0x40)\n      tag_25\n      swap2\n      swap1\n      tag_26\n      jump\t// in\n    tag_25:\n      mload(0x40)\n      dup1\n      swap2\n      sub\n      swap1\n      return\n        /* \"Udemy_Contracts/Types.sol\":244:283  string public myString = \"Hello Web3.0\" */\n    tag_7:\n      tag_27\n      tag_28\n      jump\t// in\n    tag_27:\n      mload(0x40)\n      tag_29\n      swap2\n      swap1\n      tag_30\n      jump\t// in\n    tag_29:\n      mload(0x40)\n      dup1\n      swap2\n      sub\n      swap1\n      return\n        /* \"Udemy_Contracts/Types.sol\":437:488  MyStruct public myStruct = MyStruct(\"Shincode\", 24) */\n    tag_8:\n      tag_31\n      tag_32\n      jump\t// in\n    tag_31:\n      mload(0x40)\n      tag_33\n      swap3\n      swap2\n      swap1\n      tag_34\n      jump\t// in\n    tag_33:\n      mload(0x40)\n      dup1\n      swap2\n      sub\n      swap1\n      return\n        /* \"Udemy_Contracts/Types.sol\":152:180  uint256 public myUint256 = 1 */\n    tag_9:\n      tag_35\n      tag_36\n      jump\t// in\n    tag_35:\n      mload(0x40)\n      tag_37\n      swap2\n      swap1\n      tag_15\n      jump\t// in\n    tag_37:\n      mload(0x40)\n      dup1\n      swap2\n      sub\n      swap1\n      return\n        /* \"Udemy_Contracts/Types.sol\":186:210  uint8 public myUint8 = 1 */\n    tag_10:\n      tag_38\n      tag_39\n      jump\t// in\n    tag_38:\n      mload(0x40)\n      tag_40\n      swap2\n      swap1\n      tag_41\n      jump\t// in\n    tag_40:\n      mload(0x40)\n      dup1\n      swap2\n      sub\n      swap1\n      return\n        /* \"Udemy_Contracts/Types.sol\":109:132  uint  public myUint = 2 */\n    tag_13:\n      sload(0x00)\n      dup2\n      jump\t// out\n        /* \"Udemy_Contracts/Types.sol\":525:623  function getValue() public pure returns(uint){... */\n    tag_17:\n        /* \"Udemy_Contracts/Types.sol\":565:569  uint */\n      0x00\n        /* \"Udemy_Contracts/Types.sol\":580:590  uint value */\n      dup1\n        /* \"Udemy_Contracts/Types.sol\":593:594  1 */\n      0x01\n        /* \"Udemy_Contracts/Types.sol\":580:594  uint value = 1 */\n      swap1\n      pop\n        /* \"Udemy_Contracts/Types.sol\":611:616  value */\n      dup1\n        /* \"Udemy_Contracts/Types.sol\":604:616  return value */\n      swap2\n      pop\n      pop\n        /* \"Udemy_Contracts/Types.sol\":525:623  function getValue() public pure returns(uint){... */\n      swap1\n      jump\t// out\n        /* \"Udemy_Contracts/Types.sol\":290:359  address public myAddress = 0x48FFBBc808740181080B107F6D01cF878E16585a */\n    tag_20:\n      0x05\n      0x00\n      swap1\n      sload\n      swap1\n      0x0100\n      exp\n      swap1\n      div\n      0xffffffffffffffffffffffffffffffffffffffff\n      and\n      dup2\n      jump\t// out\n        /* \"Udemy_Contracts/Types.sol\":216:237  int public myInt = -1 */\n    tag_24:\n      sload(0x03)\n      dup2\n      jump\t// out\n        /* \"Udemy_Contracts/Types.sol\":244:283  string public myString = \"Hello Web3.0\" */\n    tag_28:\n      0x04\n      dup1\n      sload\n      tag_43\n      swap1\n      tag_44\n      jump\t// in\n    tag_43:\n      dup1\n      0x1f\n      add\n      0x20\n      dup1\n      swap2\n      div\n      mul\n      0x20\n      add\n      mload(0x40)\n      swap1\n      dup2\n      add\n      0x40\n      mstore\n      dup1\n      swap3\n      swap2\n      swap1\n      dup2\n      dup2\n      mstore\n      0x20\n      add\n      dup3\n      dup1\n      sload\n      tag_45\n      swap1\n      tag_44\n      jump\t// in\n    tag_45:\n      dup1\n      iszero\n      tag_46\n      jumpi\n      dup1\n      0x1f\n      lt\n      tag_47\n      jumpi\n      0x0100\n      dup1\n      dup4\n      sload\n      div\n      mul\n      dup4\n      mstore\n      swap2\n      0x20\n      add\n      swap2\n      jump(tag_46)\n    tag_47:\n      dup3\n      add\n      swap2\n      swap1\n      0x00\n      mstore\n      keccak256(0x00, 0x20)\n      swap1\n    tag_48:\n      dup2\n      sload\n      dup2\n      mstore\n      swap1\n      0x01\n      add\n      swap1\n      0x20\n      add\n      dup1\n      dup4\n      gt\n      tag_48\n      jumpi\n      dup3\n      swap1\n      sub\n      0x1f\n      and\n      dup3\n      add\n      swap2\n    tag_46:\n      pop\n      pop\n      pop\n      pop\n      pop\n      dup2\n      jump\t// out\n        /* \"Udemy_Contracts/Types.sol\":437:488  MyStruct public myStruct = MyStruct(\"Shincode\", 24) */\n    tag_32:\n      0x06\n      dup1\n      0x00\n      add\n      dup1\n      sload\n      tag_49\n      swap1\n      tag_44\n      jump\t// in\n    tag_49:\n      dup1\n      0x1f\n      add\n      0x20\n      dup1\n      swap2\n      div\n      mul\n      0x20\n      add\n      mload(0x40)\n      swap1\n      dup2\n      add\n      0x40\n      mstore\n      dup1\n      swap3\n      swap2\n      swap1\n      dup2\n      dup2\n      mstore\n      0x20\n      add\n      dup3\n      dup1\n      sload\n      tag_50\n      swap1\n      tag_44\n      jump\t// in\n    tag_50:\n      dup1\n      iszero\n      tag_51\n      jumpi\n      dup1\n      0x1f\n      lt\n      tag_52\n      jumpi\n      0x0100\n      dup1\n      dup4\n      sload\n      div\n      mul\n      dup4\n      mstore\n      swap2\n      0x20\n      add\n      swap2\n      jump(tag_51)\n    tag_52:\n      dup3\n      add\n      swap2\n      swap1\n      0x00\n      mstore\n      keccak256(0x00, 0x20)\n      swap1\n    tag_53:\n      dup2\n      sload\n      dup2\n      mstore\n      swap1\n      0x01\n      add\n      swap1\n      0x20\n      add\n      dup1\n      dup4\n      gt\n      tag_53\n      jumpi\n      dup3\n      swap1\n      sub\n      0x1f\n      and\n      dup3\n      add\n      swap2\n    tag_51:\n      pop\n      pop\n      pop\n      pop\n      pop\n      swap1\n      dup1\n      0x01\n      add\n      sload\n      swap1\n      pop\n      dup3\n      jump\t// out\n        /* \"Udemy_Contracts/Types.sol\":152:180  uint256 public myUint256 = 1 */\n    tag_36:\n      sload(0x01)\n      dup2\n      jump\t// out\n        /* \"Udemy_Contracts/Types.sol\":186:210  uint8 public myUint8 = 1 */\n    tag_39:\n      0x02\n      0x00\n      swap1\n      sload\n      swap1\n      0x0100\n      exp\n      swap1\n      div\n      0xff\n      and\n      dup2\n      jump\t// out\n        /* \"#utility.yul\":7:125   */\n    tag_55:\n        /* \"#utility.yul\":94:118   */\n      tag_57\n        /* \"#utility.yul\":112:117   */\n      dup2\n        /* \"#utility.yul\":94:118   */\n      tag_58\n      jump\t// in\n    tag_57:\n        /* \"#utility.yul\":89:92   */\n      dup3\n        /* \"#utility.yul\":82:119   */\n      mstore\n        /* \"#utility.yul\":72:125   */\n      pop\n      pop\n      jump\t// out\n        /* \"#utility.yul\":131:246   */\n    tag_59:\n        /* \"#utility.yul\":216:239   */\n      tag_61\n        /* \"#utility.yul\":233:238   */\n      dup2\n        /* \"#utility.yul\":216:239   */\n      tag_62\n      jump\t// in\n    tag_61:\n        /* \"#utility.yul\":211:214   */\n      dup3\n        /* \"#utility.yul\":204:240   */\n      mstore\n        /* \"#utility.yul\":194:246   */\n      pop\n      pop\n      jump\t// out\n        /* \"#utility.yul\":252:616   */\n    tag_63:\n      0x00\n        /* \"#utility.yul\":368:407   */\n      tag_65\n        /* \"#utility.yul\":401:406   */\n      dup3\n        /* \"#utility.yul\":368:407   */\n      tag_66\n      jump\t// in\n    tag_65:\n        /* \"#utility.yul\":423:494   */\n      tag_67\n        /* \"#utility.yul\":487:493   */\n      dup2\n        /* \"#utility.yul\":482:485   */\n      dup6\n        /* \"#utility.yul\":423:494   */\n      tag_68\n      jump\t// in\n    tag_67:\n        /* \"#utility.yul\":416:494   */\n      swap4\n      pop\n        /* \"#utility.yul\":503:555   */\n      tag_69\n        /* \"#utility.yul\":548:554   */\n      dup2\n        /* \"#utility.yul\":543:546   */\n      dup6\n        /* \"#utility.yul\":536:540   */\n      0x20\n        /* \"#utility.yul\":529:534   */\n      dup7\n        /* \"#utility.yul\":525:541   */\n      add\n        /* \"#utility.yul\":503:555   */\n      tag_70\n      jump\t// in\n    tag_69:\n        /* \"#utility.yul\":580:609   */\n      tag_71\n        /* \"#utility.yul\":602:608   */\n      dup2\n        /* \"#utility.yul\":580:609   */\n      tag_72\n      jump\t// in\n    tag_71:\n        /* \"#utility.yul\":575:578   */\n      dup5\n        /* \"#utility.yul\":571:610   */\n      add\n        /* \"#utility.yul\":564:610   */\n      swap2\n      pop\n        /* \"#utility.yul\":344:616   */\n      pop\n      swap3\n      swap2\n      pop\n      pop\n      jump\t// out\n        /* \"#utility.yul\":622:740   */\n    tag_73:\n        /* \"#utility.yul\":709:733   */\n      tag_75\n        /* \"#utility.yul\":727:732   */\n      dup2\n        /* \"#utility.yul\":709:733   */\n      tag_76\n      jump\t// in\n    tag_75:\n        /* \"#utility.yul\":704:707   */\n      dup3\n        /* \"#utility.yul\":697:734   */\n      mstore\n        /* \"#utility.yul\":687:740   */\n      pop\n      pop\n      jump\t// out\n        /* \"#utility.yul\":746:858   */\n    tag_77:\n        /* \"#utility.yul\":829:851   */\n      tag_79\n        /* \"#utility.yul\":845:850   */\n      dup2\n        /* \"#utility.yul\":829:851   */\n      tag_80\n      jump\t// in\n    tag_79:\n        /* \"#utility.yul\":824:827   */\n      dup3\n        /* \"#utility.yul\":817:852   */\n      mstore\n        /* \"#utility.yul\":807:858   */\n      pop\n      pop\n      jump\t// out\n        /* \"#utility.yul\":864:1086   */\n    tag_22:\n      0x00\n        /* \"#utility.yul\":995:997   */\n      0x20\n        /* \"#utility.yul\":984:993   */\n      dup3\n        /* \"#utility.yul\":980:998   */\n      add\n        /* \"#utility.yul\":972:998   */\n      swap1\n      pop\n        /* \"#utility.yul\":1008:1079   */\n      tag_82\n        /* \"#utility.yul\":1076:1077   */\n      0x00\n        /* \"#utility.yul\":1065:1074   */\n      dup4\n        /* \"#utility.yul\":1061:1078   */\n      add\n        /* \"#utility.yul\":1052:1058   */\n      dup5\n        /* \"#utility.yul\":1008:1079   */\n      tag_55\n      jump\t// in\n    tag_82:\n        /* \"#utility.yul\":962:1086   */\n      swap3\n      swap2\n      pop\n      pop\n      jump\t// out\n        /* \"#utility.yul\":1092:1310   */\n    tag_26:\n      0x00\n        /* \"#utility.yul\":1221:1223   */\n      0x20\n        /* \"#utility.yul\":1210:1219   */\n      dup3\n        /* \"#utility.yul\":1206:1224   */\n      add\n        /* \"#utility.yul\":1198:1224   */\n      swap1\n      pop\n        /* \"#utility.yul\":1234:1303   */\n      tag_84\n        /* \"#utility.yul\":1300:1301   */\n      0x00\n        /* \"#utility.yul\":1289:1298   */\n      dup4\n        /* \"#utility.yul\":1285:1302   */\n      add\n        /* \"#utility.yul\":1276:1282   */\n      dup5\n        /* \"#utility.yul\":1234:1303   */\n      tag_59\n      jump\t// in\n    tag_84:\n        /* \"#utility.yul\":1188:1310   */\n      swap3\n      swap2\n      pop\n      pop\n      jump\t// out\n        /* \"#utility.yul\":1316:1629   */\n    tag_30:\n      0x00\n        /* \"#utility.yul\":1467:1469   */\n      0x20\n        /* \"#utility.yul\":1456:1465   */\n      dup3\n        /* \"#utility.yul\":1452:1470   */\n      add\n        /* \"#utility.yul\":1444:1470   */\n      swap1\n      pop\n        /* \"#utility.yul\":1516:1525   */\n      dup2\n        /* \"#utility.yul\":1510:1514   */\n      dup2\n        /* \"#utility.yul\":1506:1526   */\n      sub\n        /* \"#utility.yul\":1502:1503   */\n      0x00\n        /* \"#utility.yul\":1491:1500   */\n      dup4\n        /* \"#utility.yul\":1487:1504   */\n      add\n        /* \"#utility.yul\":1480:1527   */\n      mstore\n        /* \"#utility.yul\":1544:1622   */\n      tag_86\n        /* \"#utility.yul\":1617:1621   */\n      dup2\n        /* \"#utility.yul\":1608:1614   */\n      dup5\n        /* \"#utility.yul\":1544:1622   */\n      tag_63\n      jump\t// in\n    tag_86:\n        /* \"#utility.yul\":1536:1622   */\n      swap1\n      pop\n        /* \"#utility.yul\":1434:1629   */\n      swap3\n      swap2\n      pop\n      pop\n      jump\t// out\n        /* \"#utility.yul\":1635:2058   */\n    tag_34:\n      0x00\n        /* \"#utility.yul\":1814:1816   */\n      0x40\n        /* \"#utility.yul\":1803:1812   */\n      dup3\n        /* \"#utility.yul\":1799:1817   */\n      add\n        /* \"#utility.yul\":1791:1817   */\n      swap1\n      pop\n        /* \"#utility.yul\":1863:1872   */\n      dup2\n        /* \"#utility.yul\":1857:1861   */\n      dup2\n        /* \"#utility.yul\":1853:1873   */\n      sub\n        /* \"#utility.yul\":1849:1850   */\n      0x00\n        /* \"#utility.yul\":1838:1847   */\n      dup4\n        /* \"#utility.yul\":1834:1851   */\n      add\n        /* \"#utility.yul\":1827:1874   */\n      mstore\n        /* \"#utility.yul\":1891:1969   */\n      tag_88\n        /* \"#utility.yul\":1964:1968   */\n      dup2\n        /* \"#utility.yul\":1955:1961   */\n      dup6\n        /* \"#utility.yul\":1891:1969   */\n      tag_63\n      jump\t// in\n    tag_88:\n        /* \"#utility.yul\":1883:1969   */\n      swap1\n      pop\n        /* \"#utility.yul\":1979:2051   */\n      tag_89\n        /* \"#utility.yul\":2047:2049   */\n      0x20\n        /* \"#utility.yul\":2036:2045   */\n      dup4\n        /* \"#utility.yul\":2032:2050   */\n      add\n        /* \"#utility.yul\":2023:2029   */\n      dup5\n        /* \"#utility.yul\":1979:2051   */\n      tag_73\n      jump\t// in\n    tag_89:\n        /* \"#utility.yul\":1781:2058   */\n      swap4\n      swap3\n      pop\n      pop\n      pop\n      jump\t// out\n        /* \"#utility.yul\":2064:2286   */\n    tag_15:\n      0x00\n        /* \"#utility.yul\":2195:2197   */\n      0x20\n        /* \"#utility.yul\":2184:2193   */\n      dup3\n        /* \"#utility.yul\":2180:2198   */\n      add\n        /* \"#utility.yul\":2172:2198   */\n      swap1\n      pop\n        /* \"#utility.yul\":2208:2279   */\n      tag_91\n        /* \"#utility.yul\":2276:2277   */\n      0x00\n        /* \"#utility.yul\":2265:2274   */\n      dup4\n        /* \"#utility.yul\":2261:2278   */\n      add\n        /* \"#utility.yul\":2252:2258   */\n      dup5\n        /* \"#utility.yul\":2208:2279   */\n      tag_73\n      jump\t// in\n    tag_91:\n        /* \"#utility.yul\":2162:2286   */\n      swap3\n      swap2\n      pop\n      pop\n      jump\t// out\n        /* \"#utility.yul\":2292:2506   */\n    tag_41:\n      0x00\n        /* \"#utility.yul\":2419:2421   */\n      0x20\n        /* \"#utility.yul\":2408:2417   */\n      dup3\n        /* \"#utility.yul\":2404:2422   */\n      add\n        /* \"#utility.yul\":2396:2422   */\n      swap1\n      pop\n        /* \"#utility.yul\":2432:2499   */\n      tag_93\n        /* \"#utility.yul\":2496:2497   */\n      0x00\n        /* \"#utility.yul\":2485:2494   */\n      dup4\n        /* \"#utility.yul\":2481:2498   */\n      add\n        /* \"#utility.yul\":2472:2478   */\n      dup5\n        /* \"#utility.yul\":2432:2499   */\n      tag_77\n      jump\t// in\n    tag_93:\n        /* \"#utility.yul\":2386:2506   */\n      swap3\n      swap2\n      pop\n      pop\n      jump\t// out\n        /* \"#utility.yul\":2512:2611   */\n    tag_66:\n      0x00\n        /* \"#utility.yul\":2598:2603   */\n      dup2\n        /* \"#utility.yul\":2592:2604   */\n      mload\n        /* \"#utility.yul\":2582:2604   */\n      swap1\n      pop\n        /* \"#utility.yul\":2571:2611   */\n      swap2\n      swap1\n      pop\n      jump\t// out\n        /* \"#utility.yul\":2617:2786   */\n    tag_68:\n      0x00\n        /* \"#utility.yul\":2735:2741   */\n      dup3\n        /* \"#utility.yul\":2730:2733   */\n      dup3\n        /* \"#utility.yul\":2723:2742   */\n      mstore\n        /* \"#utility.yul\":2775:2779   */\n      0x20\n        /* \"#utility.yul\":2770:2773   */\n      dup3\n        /* \"#utility.yul\":2766:2780   */\n      add\n        /* \"#utility.yul\":2751:2780   */\n      swap1\n      pop\n        /* \"#utility.yul\":2713:2786   */\n      swap3\n      swap2\n      pop\n      pop\n      jump\t// out\n        /* \"#utility.yul\":2792:2888   */\n    tag_58:\n      0x00\n        /* \"#utility.yul\":2858:2882   */\n      tag_97\n        /* \"#utility.yul\":2876:2881   */\n      dup3\n        /* \"#utility.yul\":2858:2882   */\n      tag_98\n      jump\t// in\n    tag_97:\n        /* \"#utility.yul\":2847:2882   */\n      swap1\n      pop\n        /* \"#utility.yul\":2837:2888   */\n      swap2\n      swap1\n      pop\n      jump\t// out\n        /* \"#utility.yul\":2894:2970   */\n    tag_62:\n      0x00\n        /* \"#utility.yul\":2959:2964   */\n      dup2\n        /* \"#utility.yul\":2948:2964   */\n      swap1\n      pop\n        /* \"#utility.yul\":2938:2970   */\n      swap2\n      swap1\n      pop\n      jump\t// out\n        /* \"#utility.yul\":2976:3102   */\n    tag_98:\n      0x00\n        /* \"#utility.yul\":3053:3095   */\n      0xffffffffffffffffffffffffffffffffffffffff\n        /* \"#utility.yul\":3046:3051   */\n      dup3\n        /* \"#utility.yul\":3042:3096   */\n      and\n        /* \"#utility.yul\":3031:3096   */\n      swap1\n      pop\n        /* \"#utility.yul\":3021:3102   */\n      swap2\n      swap1\n      pop\n      jump\t// out\n        /* \"#utility.yul\":3108:3185   */\n    tag_76:\n      0x00\n        /* \"#utility.yul\":3174:3179   */\n      dup2\n        /* \"#utility.yul\":3163:3179   */\n      swap1\n      pop\n        /* \"#utility.yul\":3153:3185   */\n      swap2\n      swap1\n      pop\n      jump\t// out\n        /* \"#utility.yul\":3191:3277   */\n    tag_80:\n      0x00\n        /* \"#utility.yul\":3266:3270   */\n      0xff\n        /* \"#utility.yul\":3259:3264   */\n      dup3\n        /* \"#utility.yul\":3255:3271   */\n      and\n        /* \"#utility.yul\":3244:3271   */\n      swap1\n      pop\n        /* \"#utility.yul\":3234:3277   */\n      swap2\n      swap1\n      pop\n      jump\t// out\n        /* \"#utility.yul\":3283:3590   */\n    tag_70:\n        /* \"#utility.yul\":3351:3352   */\n      0x00\n        /* \"#utility.yul\":3361:3474   */\n    tag_104:\n        /* \"#utility.yul\":3375:3381   */\n      dup4\n        /* \"#utility.yul\":3372:3373   */\n      dup2\n        /* \"#utility.yul\":3369:3382   */\n      lt\n        /* \"#utility.yul\":3361:3474   */\n      iszero\n      tag_106\n      jumpi\n        /* \"#utility.yul\":3460:3461   */\n      dup1\n        /* \"#utility.yul\":3455:3458   */\n      dup3\n        /* \"#utility.yul\":3451:3462   */\n      add\n        /* \"#utility.yul\":3445:3463   */\n      mload\n        /* \"#utility.yul\":3441:3442   */\n      dup2\n        /* \"#utility.yul\":3436:3439   */\n      dup5\n        /* \"#utility.yul\":3432:3443   */\n      add\n        /* \"#utility.yul\":3425:3464   */\n      mstore\n        /* \"#utility.yul\":3397:3399   */\n      0x20\n        /* \"#utility.yul\":3394:3395   */\n      dup2\n        /* \"#utility.yul\":3390:3400   */\n      add\n        /* \"#utility.yul\":3385:3400   */\n      swap1\n      pop\n        /* \"#utility.yul\":3361:3474   */\n      jump(tag_104)\n    tag_106:\n        /* \"#utility.yul\":3492:3498   */\n      dup4\n        /* \"#utility.yul\":3489:3490   */\n      dup2\n        /* \"#utility.yul\":3486:3499   */\n      gt\n        /* \"#utility.yul\":3483:3485   */\n      iszero\n      tag_107\n      jumpi\n        /* \"#utility.yul\":3572:3573   */\n      0x00\n        /* \"#utility.yul\":3563:3569   */\n      dup5\n        /* \"#utility.yul\":3558:3561   */\n      dup5\n        /* \"#utility.yul\":3554:3570   */\n      add\n        /* \"#utility.yul\":3547:3574   */\n      mstore\n        /* \"#utility.yul\":3483:3485   */\n    tag_107:\n        /* \"#utility.yul\":3332:3590   */\n      pop\n      pop\n      pop\n      pop\n      jump\t// out\n        /* \"#utility.yul\":3596:3916   */\n    tag_44:\n      0x00\n        /* \"#utility.yul\":3677:3678   */\n      0x02\n        /* \"#utility.yul\":3671:3675   */\n      dup3\n        /* \"#utility.yul\":3667:3679   */\n      div\n        /* \"#utility.yul\":3657:3679   */\n      swap1\n      pop\n        /* \"#utility.yul\":3724:3725   */\n      0x01\n        /* \"#utility.yul\":3718:3722   */\n      dup3\n        /* \"#utility.yul\":3714:3726   */\n      and\n        /* \"#utility.yul\":3745:3763   */\n      dup1\n        /* \"#utility.yul\":3735:3737   */\n      tag_109\n      jumpi\n        /* \"#utility.yul\":3801:3805   */\n      0x7f\n        /* \"#utility.yul\":3793:3799   */\n      dup3\n        /* \"#utility.yul\":3789:3806   */\n      and\n        /* \"#utility.yul\":3779:3806   */\n      swap2\n      pop\n        /* \"#utility.yul\":3735:3737   */\n    tag_109:\n        /* \"#utility.yul\":3863:3865   */\n      0x20\n        /* \"#utility.yul\":3855:3861   */\n      dup3\n        /* \"#utility.yul\":3852:3866   */\n      lt\n        /* \"#utility.yul\":3832:3850   */\n      dup2\n        /* \"#utility.yul\":3829:3867   */\n      eq\n        /* \"#utility.yul\":3826:3828   */\n      iszero\n      tag_110\n      jumpi\n        /* \"#utility.yul\":3882:3900   */\n      tag_111\n      tag_112\n      jump\t// in\n    tag_111:\n        /* \"#utility.yul\":3826:3828   */\n    tag_110:\n        /* \"#utility.yul\":3647:3916   */\n      pop\n      swap2\n      swap1\n      pop\n      jump\t// out\n        /* \"#utility.yul\":3922:4102   */\n    tag_112:\n        /* \"#utility.yul\":3970:4047   */\n      0x4e487b7100000000000000000000000000000000000000000000000000000000\n        /* \"#utility.yul\":3967:3968   */\n      0x00\n        /* \"#utility.yul\":3960:4048   */\n      mstore\n        /* \"#utility.yul\":4067:4071   */\n      0x22\n        /* \"#utility.yul\":4064:4065   */\n      0x04\n        /* \"#utility.yul\":4057:4072   */\n      mstore\n        /* \"#utility.yul\":4091:4095   */\n      0x24\n        /* \"#utility.yul\":4088:4089   */\n      0x00\n        /* \"#utility.yul\":4081:4096   */\n      revert\n        /* \"#utility.yul\":4108:4210   */\n    tag_72:\n      0x00\n        /* \"#utility.yul\":4200:4202   */\n      0x1f\n        /* \"#utility.yul\":4196:4203   */\n      not\n        /* \"#utility.yul\":4191:4193   */\n      0x1f\n        /* \"#utility.yul\":4184:4189   */\n      dup4\n        /* \"#utility.yul\":4180:4194   */\n      add\n        /* \"#utility.yul\":4176:4204   */\n      and\n        /* \"#utility.yul\":4166:4204   */\n      swap1\n      pop\n        /* \"#utility.yul\":4156:4210   */\n      swap2\n      swap1\n      pop\n      jump\t// out\n\n    auxdata: 0xa26469706673582212204aa7151875e4f168d3ad517049be897e9ee9e224d93019caede44001b54413f364736f6c63430008000033\n}\n",
				"bytecode": {
					"linkReferences": {},
					"object": "60806040526002600055600180556001600260006101000a81548160ff021916908360ff1602179055507fffffffffffffffffffffffffffffffffffffffffffffffffffffffffffffffff6003556040518060400160405280600c81526020017f48656c6c6f20576562332e30000000000000000000000000000000000000000081525060049080519060200190610098929190610176565b507348ffbbc808740181080b107f6d01cf878e16585a600560006101000a81548173ffffffffffffffffffffffffffffffffffffffff021916908373ffffffffffffffffffffffffffffffffffffffff16021790555060405180604001604052806040518060400160405280600881526020017f5368696e636f64650000000000000000000000000000000000000000000000008152508152602001601881525060066000820151816000019080519060200190610157929190610176565b5060208201518160010155505034801561017057600080fd5b5061027a565b82805461018290610219565b90600052602060002090601f0160209004810192826101a457600085556101eb565b82601f106101bd57805160ff19168380011785556101eb565b828001600101855582156101eb579182015b828111156101ea5782518255916020019190600101906101cf565b5b5090506101f891906101fc565b5090565b5b808211156102155760008160009055506001016101fd565b5090565b6000600282049050600182168061023157607f821691505b602082108114156102455761024461024b565b5b50919050565b7f4e487b7100000000000000000000000000000000000000000000000000000000600052602260045260246000fd5b61057c806102896000396000f3fe608060405234801561001057600080fd5b50600436106100885760003560e01c8063492bfa181161005b578063492bfa18146101055780638bc9fe6c14610123578063a7dbce1c14610142578063e2a4b2af1461016057610088565b806306540f7e1461008d57806320965255146100ab57806326b85ee1146100c95780632cb777a6146100e7575b600080fd5b61009561017e565b6040516100a291906103fc565b60405180910390f35b6100b3610184565b6040516100c091906103fc565b60405180910390f35b6100d1610192565b6040516100de9190610374565b60405180910390f35b6100ef6101b8565b6040516100fc919061038f565b60405180910390f35b61010d6101be565b60405161011a91906103aa565b60405180910390f35b61012b61024c565b6040516101399291906103cc565b60405180910390f35b61014a6102e6565b60405161015791906103fc565b60405180910390f35b6101686102ec565b6040516101759190610417565b60405180910390f35b60005481565b600080600190508091505090565b600560009054906101000a900473ffffffffffffffffffffffffffffffffffffffff1681565b60035481565b600480546101cb906104d4565b80601f01602080910402602001604051908101604052809291908181526020018280546101f7906104d4565b80156102445780601f1061021957610100808354040283529160200191610244565b820191906000526020600020905b81548152906001019060200180831161022757829003601f168201915b505050505081565b600680600001805461025d906104d4565b80601f0160208091040260200160405190810160405280929190818152602001828054610289906104d4565b80156102d65780601f106102ab576101008083540402835291602001916102d6565b820191906000526020600020905b8154815290600101906020018083116102b957829003601f168201915b5050505050908060010154905082565b60015481565b600260009054906101000a900460ff1681565b6103088161044e565b82525050565b61031781610460565b82525050565b600061032882610432565b610332818561043d565b93506103428185602086016104a1565b61034b81610535565b840191505092915050565b61035f8161048a565b82525050565b61036e81610494565b82525050565b600060208201905061038960008301846102ff565b92915050565b60006020820190506103a4600083018461030e565b92915050565b600060208201905081810360008301526103c4818461031d565b905092915050565b600060408201905081810360008301526103e6818561031d565b90506103f56020830184610356565b9392505050565b60006020820190506104116000830184610356565b92915050565b600060208201905061042c6000830184610365565b92915050565b600081519050919050565b600082825260208201905092915050565b60006104598261046a565b9050919050565b6000819050919050565b600073ffffffffffffffffffffffffffffffffffffffff82169050919050565b6000819050919050565b600060ff82169050919050565b60005b838110156104bf5780820151818401526020810190506104a4565b838111156104ce576000848401525b50505050565b600060028204905060018216806104ec57607f821691505b60208210811415610500576104ff610506565b5b50919050565b7f4e487b7100000000000000000000000000000000000000000000000000000000600052602260045260246000fd5b6000601f19601f830116905091905056fea26469706673582212204aa7151875e4f168d3ad517049be897e9ee9e224d93019caede44001b54413f364736f6c63430008000033",
					"opcodes": "PUSH1 0x80 PUSH1 0x40 MSTORE PUSH1 0x2 PUSH1 0x0 SSTORE PUSH1 0x1 DUP1 SSTORE PUSH1 0x1 PUSH1 0x2 PUSH1 0x0 PUSH2 0x100 EXP DUP2 SLOAD DUP2 PUSH1 0xFF MUL NOT AND SWAP1 DUP4 PUSH1 0xFF AND MUL OR SWAP1 SSTORE POP PUSH32 0xFFFFFFFFFFFFFFFFFFFFFFFFFFFFFFFFFFFFFFFFFFFFFFFFFFFFFFFFFFFFFFFF PUSH1 0x3 SSTORE PUSH1 0x40 MLOAD DUP1 PUSH1 0x40 ADD PUSH1 0x40 MSTORE DUP1 PUSH1 0xC DUP2 MSTORE PUSH1 0x20 ADD PUSH32 0x48656C6C6F20576562332E300000000000000000000000000000000000000000 DUP2 MSTORE POP PUSH1 0x4 SWAP1 DUP1 MLOAD SWAP1 PUSH1 0x20 ADD SWAP1 PUSH2 0x98 SWAP3 SWAP2 SWAP1 PUSH2 0x176 JUMP JUMPDEST POP PUSH20 0x48FFBBC808740181080B107F6D01CF878E16585A PUSH1 0x5 PUSH1 0x0 PUSH2 0x100 EXP DUP2 SLOAD DUP2 PUSH20 0xFFFFFFFFFFFFFFFFFFFFFFFFFFFFFFFFFFFFFFFF MUL NOT AND SWAP1 DUP4 PUSH20 0xFFFFFFFFFFFFFFFFFFFFFFFFFFFFFFFFFFFFFFFF AND MUL OR SWAP1 SSTORE POP PUSH1 0x40 MLOAD DUP1 PUSH1 0x40 ADD PUSH1 0x40 MSTORE DUP1 PUSH1 0x40 MLOAD DUP1 PUSH1 0x40 ADD PUSH1 0x40 MSTORE DUP1 PUSH1 0x8 DUP2 MSTORE PUSH1 0x20 ADD PUSH32 0x5368696E636F6465000000000000000000000000000000000000000000000000 DUP2 MSTORE POP DUP2 MSTORE PUSH1 0x20 ADD PUSH1 0x18 DUP2 MSTORE POP PUSH1 0x6 PUSH1 0x0 DUP3 ADD MLOAD DUP2 PUSH1 0x0 ADD SWAP1 DUP1 MLOAD SWAP1 PUSH1 0x20 ADD SWAP1 PUSH2 0x157 SWAP3 SWAP2 SWAP1 PUSH2 0x176 JUMP JUMPDEST POP PUSH1 0x20 DUP3 ADD MLOAD DUP2 PUSH1 0x1 ADD SSTORE POP POP CALLVALUE DUP1 ISZERO PUSH2 0x170 JUMPI PUSH1 0x0 DUP1 REVERT JUMPDEST POP PUSH2 0x27A JUMP JUMPDEST DUP3 DUP1 SLOAD PUSH2 0x182 SWAP1 PUSH2 0x219 JUMP JUMPDEST SWAP1 PUSH1 0x0 MSTORE PUSH1 0x20 PUSH1 0x0 KECCAK256 SWAP1 PUSH1 0x1F ADD PUSH1 0x20 SWAP1 DIV DUP2 ADD SWAP3 DUP3 PUSH2 0x1A4 JUMPI PUSH1 0x0 DUP6 SSTORE PUSH2 0x1EB JUMP JUMPDEST DUP3 PUSH1 0x1F LT PUSH2 0x1BD JUMPI DUP1 MLOAD PUSH1 0xFF NOT AND DUP4 DUP1 ADD OR DUP6 SSTORE PUSH2 0x1EB JUMP JUMPDEST DUP3 DUP1 ADD PUSH1 0x1 ADD DUP6 SSTORE DUP3 ISZERO PUSH2 0x1EB JUMPI SWAP2 DUP3 ADD JUMPDEST DUP3 DUP2 GT ISZERO PUSH2 0x1EA JUMPI DUP3 MLOAD DUP3 SSTORE SWAP2 PUSH1 0x20 ADD SWAP2 SWAP1 PUSH1 0x1 ADD SWAP1 PUSH2 0x1CF JUMP JUMPDEST JUMPDEST POP SWAP1 POP PUSH2 0x1F8 SWAP2 SWAP1 PUSH2 0x1FC JUMP JUMPDEST POP SWAP1 JUMP JUMPDEST JUMPDEST DUP1 DUP3 GT ISZERO PUSH2 0x215 JUMPI PUSH1 0x0 DUP2 PUSH1 0x0 SWAP1 SSTORE POP PUSH1 0x1 ADD PUSH2 0x1FD JUMP JUMPDEST POP SWAP1 JUMP JUMPDEST PUSH1 0x0 PUSH1 0x2 DUP3 DIV SWAP1 POP PUSH1 0x1 DUP3 AND DUP1 PUSH2 0x231 JUMPI PUSH1 0x7F DUP3 AND SWAP2 POP JUMPDEST PUSH1 0x20 DUP3 LT DUP2 EQ ISZERO PUSH2 0x245 JUMPI PUSH2 0x244 PUSH2 0x24B JUMP JUMPDEST JUMPDEST POP SWAP2 SWAP1 POP JUMP JUMPDEST PUSH32 0x4E487B7100000000000000000000000000000000000000000000000000000000 PUSH1 0x0 MSTORE PUSH1 0x22 PUSH1 0x4 MSTORE PUSH1 0x24 PUSH1 0x0 REVERT JUMPDEST PUSH2 0x57C DUP1 PUSH2 0x289 PUSH1 0x0 CODECOPY PUSH1 0x0 RETURN INVALID PUSH1 0x80 PUSH1 0x40 MSTORE CALLVALUE DUP1 ISZERO PUSH2 0x10 JUMPI PUSH1 0x0 DUP1 REVERT JUMPDEST POP PUSH1 0x4 CALLDATASIZE LT PUSH2 0x88 JUMPI PUSH1 0x0 CALLDATALOAD PUSH1 0xE0 SHR DUP1 PUSH4 0x492BFA18 GT PUSH2 0x5B JUMPI DUP1 PUSH4 0x492BFA18 EQ PUSH2 0x105 JUMPI DUP1 PUSH4 0x8BC9FE6C EQ PUSH2 0x123 JUMPI DUP1 PUSH4 0xA7DBCE1C EQ PUSH2 0x142 JUMPI DUP1 PUSH4 0xE2A4B2AF EQ PUSH2 0x160 JUMPI PUSH2 0x88 JUMP JUMPDEST DUP1 PUSH4 0x6540F7E EQ PUSH2 0x8D JUMPI DUP1 PUSH4 0x20965255 EQ PUSH2 0xAB JUMPI DUP1 PUSH4 0x26B85EE1 EQ PUSH2 0xC9 JUMPI DUP1 PUSH4 0x2CB777A6 EQ PUSH2 0xE7 JUMPI JUMPDEST PUSH1 0x0 DUP1 REVERT JUMPDEST PUSH2 0x95 PUSH2 0x17E JUMP JUMPDEST PUSH1 0x40 MLOAD PUSH2 0xA2 SWAP2 SWAP1 PUSH2 0x3FC JUMP JUMPDEST PUSH1 0x40 MLOAD DUP1 SWAP2 SUB SWAP1 RETURN JUMPDEST PUSH2 0xB3 PUSH2 0x184 JUMP JUMPDEST PUSH1 0x40 MLOAD PUSH2 0xC0 SWAP2 SWAP1 PUSH2 0x3FC JUMP JUMPDEST PUSH1 0x40 MLOAD DUP1 SWAP2 SUB SWAP1 RETURN JUMPDEST PUSH2 0xD1 PUSH2 0x192 JUMP JUMPDEST PUSH1 0x40 MLOAD PUSH2 0xDE SWAP2 SWAP1 PUSH2 0x374 JUMP JUMPDEST PUSH1 0x40 MLOAD DUP1 SWAP2 SUB SWAP1 RETURN JUMPDEST PUSH2 0xEF PUSH2 0x1B8 JUMP JUMPDEST PUSH1 0x40 MLOAD PUSH2 0xFC SWAP2 SWAP1 PUSH2 0x38F JUMP JUMPDEST PUSH1 0x40 MLOAD DUP1 SWAP2 SUB SWAP1 RETURN JUMPDEST PUSH2 0x10D PUSH2 0x1BE JUMP JUMPDEST PUSH1 0x40 MLOAD PUSH2 0x11A SWAP2 SWAP1 PUSH2 0x3AA JUMP JUMPDEST PUSH1 0x40 MLOAD DUP1 SWAP2 SUB SWAP1 RETURN JUMPDEST PUSH2 0x12B PUSH2 0x24C JUMP JUMPDEST PUSH1 0x40 MLOAD PUSH2 0x139 SWAP3 SWAP2 SWAP1 PUSH2 0x3CC JUMP JUMPDEST PUSH1 0x40 MLOAD DUP1 SWAP2 SUB SWAP1 RETURN JUMPDEST PUSH2 0x14A PUSH2 0x2E6 JUMP JUMPDEST PUSH1 0x40 MLOAD PUSH2 0x157 SWAP2 SWAP1 PUSH2 0x3FC JUMP JUMPDEST PUSH1 0x40 MLOAD DUP1 SWAP2 SUB SWAP1 RETURN JUMPDEST PUSH2 0x168 PUSH2 0x2EC JUMP JUMPDEST PUSH1 0x40 MLOAD PUSH2 0x175 SWAP2 SWAP1 PUSH2 0x417 JUMP JUMPDEST PUSH1 0x40 MLOAD DUP1 SWAP2 SUB SWAP1 RETURN JUMPDEST PUSH1 0x0 SLOAD DUP2 JUMP JUMPDEST PUSH1 0x0 DUP1 PUSH1 0x1 SWAP1 POP DUP1 SWAP2 POP POP SWAP1 JUMP JUMPDEST PUSH1 0x5 PUSH1 0x0 SWAP1 SLOAD SWAP1 PUSH2 0x100 EXP SWAP1 DIV PUSH20 0xFFFFFFFFFFFFFFFFFFFFFFFFFFFFFFFFFFFFFFFF AND DUP2 JUMP JUMPDEST PUSH1 0x3 SLOAD DUP2 JUMP JUMPDEST PUSH1 0x4 DUP1 SLOAD PUSH2 0x1CB SWAP1 PUSH2 0x4D4 JUMP JUMPDEST DUP1 PUSH1 0x1F ADD PUSH1 0x20 DUP1 SWAP2 DIV MUL PUSH1 0x20 ADD PUSH1 0x40 MLOAD SWAP1 DUP2 ADD PUSH1 0x40 MSTORE DUP1 SWAP3 SWAP2 SWAP1 DUP2 DUP2 MSTORE PUSH1 0x20 ADD DUP3 DUP1 SLOAD PUSH2 0x1F7 SWAP1 PUSH2 0x4D4 JUMP JUMPDEST DUP1 ISZERO PUSH2 0x244 JUMPI DUP1 PUSH1 0x1F LT PUSH2 0x219 JUMPI PUSH2 0x100 DUP1 DUP4 SLOAD DIV MUL DUP4 MSTORE SWAP2 PUSH1 0x20 ADD SWAP2 PUSH2 0x244 JUMP JUMPDEST DUP3 ADD SWAP2 SWAP1 PUSH1 0x0 MSTORE PUSH1 0x20 PUSH1 0x0 KECCAK256 SWAP1 JUMPDEST DUP2 SLOAD DUP2 MSTORE SWAP1 PUSH1 0x1 ADD SWAP1 PUSH1 0x20 ADD DUP1 DUP4 GT PUSH2 0x227 JUMPI DUP3 SWAP1 SUB PUSH1 0x1F AND DUP3 ADD SWAP2 JUMPDEST POP POP POP POP POP DUP2 JUMP JUMPDEST PUSH1 0x6 DUP1 PUSH1 0x0 ADD DUP1 SLOAD PUSH2 0x25D SWAP1 PUSH2 0x4D4 JUMP JUMPDEST DUP1 PUSH1 0x1F ADD PUSH1 0x20 DUP1 SWAP2 DIV MUL PUSH1 0x20 ADD PUSH1 0x40 MLOAD SWAP1 DUP2 ADD PUSH1 0x40 MSTORE DUP1 SWAP3 SWAP2 SWAP1 DUP2 DUP2 MSTORE PUSH1 0x20 ADD DUP3 DUP1 SLOAD PUSH2 0x289 SWAP1 PUSH2 0x4D4 JUMP JUMPDEST DUP1 ISZERO PUSH2 0x2D6 JUMPI DUP1 PUSH1 0x1F LT PUSH2 0x2AB JUMPI PUSH2 0x100 DUP1 DUP4 SLOAD DIV MUL DUP4 MSTORE SWAP2 PUSH1 0x20 ADD SWAP2 PUSH2 0x2D6 JUMP JUMPDEST DUP3 ADD SWAP2 SWAP1 PUSH1 0x0 MSTORE PUSH1 0x20 PUSH1 0x0 KECCAK256 SWAP1 JUMPDEST DUP2 SLOAD DUP2 MSTORE SWAP1 PUSH1 0x1 ADD SWAP1 PUSH1 0x20 ADD DUP1 DUP4 GT PUSH2 0x2B9 JUMPI DUP3 SWAP1 SUB PUSH1 0x1F AND DUP3 ADD SWAP2 JUMPDEST POP POP POP POP POP SWAP1 DUP1 PUSH1 0x1 ADD SLOAD SWAP1 POP DUP3 JUMP JUMPDEST PUSH1 0x1 SLOAD DUP2 JUMP JUMPDEST PUSH1 0x2 PUSH1 0x0 SWAP1 SLOAD SWAP1 PUSH2 0x100 EXP SWAP1 DIV PUSH1 0xFF AND DUP2 JUMP JUMPDEST PUSH2 0x308 DUP2 PUSH2 0x44E JUMP JUMPDEST DUP3 MSTORE POP POP JUMP JUMPDEST PUSH2 0x317 DUP2 PUSH2 0x460 JUMP JUMPDEST DUP3 MSTORE POP POP JUMP JUMPDEST PUSH1 0x0 PUSH2 0x328 DUP3 PUSH2 0x432 JUMP JUMPDEST PUSH2 0x332 DUP2 DUP6 PUSH2 0x43D JUMP JUMPDEST SWAP4 POP PUSH2 0x342 DUP2 DUP6 PUSH1 0x20 DUP7 ADD PUSH2 0x4A1 JUMP JUMPDEST PUSH2 0x34B DUP2 PUSH2 0x535 JUMP JUMPDEST DUP5 ADD SWAP2 POP POP SWAP3 SWAP2 POP POP JUMP JUMPDEST PUSH2 0x35F DUP2 PUSH2 0x48A JUMP JUMPDEST DUP3 MSTORE POP POP JUMP JUMPDEST PUSH2 0x36E DUP2 PUSH2 0x494 JUMP JUMPDEST DUP3 MSTORE POP POP JUMP JUMPDEST PUSH1 0x0 PUSH1 0x20 DUP3 ADD SWAP1 POP PUSH2 0x389 PUSH1 0x0 DUP4 ADD DUP5 PUSH2 0x2FF JUMP JUMPDEST SWAP3 SWAP2 POP POP JUMP JUMPDEST PUSH1 0x0 PUSH1 0x20 DUP3 ADD SWAP1 POP PUSH2 0x3A4 PUSH1 0x0 DUP4 ADD DUP5 PUSH2 0x30E JUMP JUMPDEST SWAP3 SWAP2 POP POP JUMP JUMPDEST PUSH1 0x0 PUSH1 0x20 DUP3 ADD SWAP1 POP DUP2 DUP2 SUB PUSH1 0x0 DUP4 ADD MSTORE PUSH2 0x3C4 DUP2 DUP5 PUSH2 0x31D JUMP JUMPDEST SWAP1 POP SWAP3 SWAP2 POP POP JUMP JUMPDEST PUSH1 0x0 PUSH1 0x40 DUP3 ADD SWAP1 POP DUP2 DUP2 SUB PUSH1 0x0 DUP4 ADD MSTORE PUSH2 0x3E6 DUP2 DUP6 PUSH2 0x31D JUMP JUMPDEST SWAP1 POP PUSH2 0x3F5 PUSH1 0x20 DUP4 ADD DUP5 PUSH2 0x356 JUMP JUMPDEST SWAP4 SWAP3 POP POP POP JUMP JUMPDEST PUSH1 0x0 PUSH1 0x20 DUP3 ADD SWAP1 POP PUSH2 0x411 PUSH1 0x0 DUP4 ADD DUP5 PUSH2 0x356 JUMP JUMPDEST SWAP3 SWAP2 POP POP JUMP JUMPDEST PUSH1 0x0 PUSH1 0x20 DUP3 ADD SWAP1 POP PUSH2 0x42C PUSH1 0x0 DUP4 ADD DUP5 PUSH2 0x365 JUMP JUMPDEST SWAP3 SWAP2 POP POP JUMP JUMPDEST PUSH1 0x0 DUP2 MLOAD SWAP1 POP SWAP2 SWAP1 POP JUMP JUMPDEST PUSH1 0x0 DUP3 DUP3 MSTORE PUSH1 0x20 DUP3 ADD SWAP1 POP SWAP3 SWAP2 POP POP JUMP JUMPDEST PUSH1 0x0 PUSH2 0x459 DUP3 PUSH2 0x46A JUMP JUMPDEST SWAP1 POP SWAP2 SWAP1 POP JUMP JUMPDEST PUSH1 0x0 DUP2 SWAP1 POP SWAP2 SWAP1 POP JUMP JUMPDEST PUSH1 0x0 PUSH20 0xFFFFFFFFFFFFFFFFFFFFFFFFFFFFFFFFFFFFFFFF DUP3 AND SWAP1 POP SWAP2 SWAP1 POP JUMP JUMPDEST PUSH1 0x0 DUP2 SWAP1 POP SWAP2 SWAP1 POP JUMP JUMPDEST PUSH1 0x0 PUSH1 0xFF DUP3 AND SWAP1 POP SWAP2 SWAP1 POP JUMP JUMPDEST PUSH1 0x0 JUMPDEST DUP4 DUP2 LT ISZERO PUSH2 0x4BF JUMPI DUP1 DUP3 ADD MLOAD DUP2 DUP5 ADD MSTORE PUSH1 0x20 DUP2 ADD SWAP1 POP PUSH2 0x4A4 JUMP JUMPDEST DUP4 DUP2 GT ISZERO PUSH2 0x4CE JUMPI PUSH1 0x0 DUP5 DUP5 ADD MSTORE JUMPDEST POP POP POP POP JUMP JUMPDEST PUSH1 0x0 PUSH1 0x2 DUP3 DIV SWAP1 POP PUSH1 0x1 DUP3 AND DUP1 PUSH2 0x4EC JUMPI PUSH1 0x7F DUP3 AND SWAP2 POP JUMPDEST PUSH1 0x20 DUP3 LT DUP2 EQ ISZERO PUSH2 0x500 JUMPI PUSH2 0x4FF PUSH2 0x506 JUMP JUMPDEST JUMPDEST POP SWAP2 SWAP1 POP JUMP JUMPDEST PUSH32 0x4E487B7100000000000000000000000000000000000000000000000000000000 PUSH1 0x0 MSTORE PUSH1 0x22 PUSH1 0x4 MSTORE PUSH1 0x24 PUSH1 0x0 REVERT JUMPDEST PUSH1 0x0 PUSH1 0x1F NOT PUSH1 0x1F DUP4 ADD AND SWAP1 POP SWAP2 SWAP1 POP JUMP INVALID LOG2 PUSH5 0x6970667358 0x22 SLT KECCAK256 0x4A 0xA7 ISZERO XOR PUSH22 0xE4F168D3AD517049BE897E9EE9E224D93019CAEDE440 ADD 0xB5 DIFFICULTY SGT RETURN PUSH5 0x736F6C6343 STOP ADDMOD STOP STOP CALLER "
				},
				"gasEstimates": {
					"creation": {
						"codeDepositCost": "280800",
						"executionCost": "infinite",
						"totalCost": "infinite"
					},
					"external": {
						"getValue()": "373",
						"myAddress()": "1259",
						"myInt()": "1196",
						"myString()": "infinite",
						"myStruct()": "infinite",
						"myUint()": "1130",
						"myUint256()": "1173",
						"myUint8()": "1237"
					}
				},
				"methodIdentifiers": {
					"getValue()": "20965255",
					"myAddress()": "26b85ee1",
					"myInt()": "2cb777a6",
					"myString()": "492bfa18",
					"myStruct()": "8bc9fe6c",
					"myUint()": "06540f7e",
					"myUint256()": "a7dbce1c",
					"myUint8()": "e2a4b2af"
				}
			},
			"storageLayout": {
				"storage": [
					{
						"astId": 4,
						"contract": "Udemy_Contracts/Types.sol:TypesContract",
						"label": "myUint",
						"offset": 0,
						"slot": "0",
						"type": "t_uint256"
					},
					{
						"astId": 7,
						"contract": "Udemy_Contracts/Types.sol:TypesContract",
						"label": "myUint256",
						"offset": 0,
						"slot": "1",
						"type": "t_uint256"
					},
					{
						"astId": 10,
						"contract": "Udemy_Contracts/Types.sol:TypesContract",
						"label": "myUint8",
						"offset": 0,
						"slot": "2",
						"type": "t_uint8"
					},
					{
						"astId": 14,
						"contract": "Udemy_Contracts/Types.sol:TypesContract",
						"label": "myInt",
						"offset": 0,
						"slot": "3",
						"type": "t_int256"
					},
					{
						"astId": 17,
						"contract": "Udemy_Contracts/Types.sol:TypesContract",
						"label": "myString",
						"offset": 0,
						"slot": "4",
						"type": "t_string_storage"
					},
					{
						"astId": 20,
						"contract": "Udemy_Contracts/Types.sol:TypesContract",
						"label": "myAddress",
						"offset": 0,
						"slot": "5",
						"type": "t_address"
					},
					{
						"astId": 32,
						"contract": "Udemy_Contracts/Types.sol:TypesContract",
						"label": "myStruct",
						"offset": 0,
						"slot": "6",
						"type": "t_struct(MyStruct)25_storage"
					}
				],
				"types": {
					"t_address": {
						"encoding": "inplace",
						"label": "address",
						"numberOfBytes": "20"
					},
					"t_int256": {
						"encoding": "inplace",
						"label": "int256",
						"numberOfBytes": "32"
					},
					"t_string_storage": {
						"encoding": "bytes",
						"label": "string",
						"numberOfBytes": "32"
					},
					"t_struct(MyStruct)25_storage": {
						"encoding": "inplace",
						"label": "struct TypesContract.MyStruct",
						"members": [
							{
								"astId": 22,
								"contract": "Udemy_Contracts/Types.sol:TypesContract",
								"label": "name",
								"offset": 0,
								"slot": "0",
								"type": "t_string_storage"
							},
							{
								"astId": 24,
								"contract": "Udemy_Contracts/Types.sol:TypesContract",
								"label": "age",
								"offset": 0,
								"slot": "1",
								"type": "t_uint256"
							}
						],
						"numberOfBytes": "64"
					},
					"t_uint256": {
						"encoding": "inplace",
						"label": "uint256",
						"numberOfBytes": "32"
					},
					"t_uint8": {
						"encoding": "inplace",
						"label": "uint8",
						"numberOfBytes": "1"
					}
				}
			},
			"userdoc": {
				"kind": "user",
				"methods": {},
				"version": 1
			}
		}
	}
}